{
  "_format": "hh-sol-artifact-1",
  "contractName": "DisputedServiceRequest",
  "sourceName": "contracts/DisputedServiceRequest.sol",
  "abi": [
    {
      "inputs": [
        {
          "internalType": "address",
          "name": "uid",
          "type": "address"
        },
        {
          "internalType": "address",
          "name": "_roleRequest",
          "type": "address"
        }
      ],
      "stateMutability": "nonpayable",
      "type": "constructor"
    },
    {
      "inputs": [
        {
          "internalType": "address",
          "name": "from",
          "type": "address"
        },
        {
          "internalType": "string",
          "name": "message",
          "type": "string"
        }
      ],
      "name": "AccessDenied",
      "type": "error"
    },
    {
      "inputs": [
        {
          "internalType": "uint256",
          "name": "srId",
          "type": "uint256"
        },
        {
          "internalType": "string",
          "name": "message",
          "type": "string"
        }
      ],
      "name": "AlreadyVoted",
      "type": "error"
    },
    {
      "inputs": [
        {
          "internalType": "address",
          "name": "from",
          "type": "address"
        },
        {
          "components": [
            {
              "internalType": "uint256",
              "name": "requestId",
              "type": "uint256"
            },
            {
              "internalType": "string",
              "name": "description",
              "type": "string"
            },
            {
              "internalType": "address",
              "name": "shipperUID",
              "type": "address"
            },
            {
              "internalType": "address",
              "name": "receiverUID",
              "type": "address"
            },
            {
              "internalType": "string",
              "name": "originGeoHash",
              "type": "string"
            },
            {
              "internalType": "string",
              "name": "destGeoHash",
              "type": "string"
            },
            {
              "internalType": "uint256",
              "name": "cargoInsurableValue",
              "type": "uint256"
            },
            {
              "internalType": "uint256",
              "name": "serviceFee",
              "type": "uint256"
            },
            {
              "internalType": "uint256",
              "name": "requestedPickupTime",
              "type": "uint256"
            },
            {
              "internalType": "uint256",
              "name": "requestedDeliveryTime",
              "type": "uint256"
            },
            {
              "internalType": "uint256",
              "name": "auctionEndTime",
              "type": "uint256"
            },
            {
              "internalType": "address",
              "name": "driverUID",
              "type": "address"
            },
            {
              "internalType": "enum Types.Status",
              "name": "status",
              "type": "uint8"
            },
            {
              "internalType": "string",
              "name": "disputeWinner",
              "type": "string"
            },
            {
              "components": [
                {
                  "internalType": "address",
                  "name": "uid",
                  "type": "address"
                },
                {
                  "internalType": "uint256",
                  "name": "serviceFee",
                  "type": "uint256"
                }
              ],
              "internalType": "struct Types.BidInfo",
              "name": "bidInfo",
              "type": "tuple"
            },
            {
              "internalType": "bool",
              "name": "disputeVoteGiven",
              "type": "bool"
            }
          ],
          "internalType": "struct Types.SRInfo",
          "name": "srInfo",
          "type": "tuple"
        }
      ],
      "name": "OnlyDisputedSRCanBeAdded",
      "type": "error"
    },
    {
      "inputs": [
        {
          "internalType": "address",
          "name": "owner",
          "type": "address"
        }
      ],
      "name": "OwnableInvalidOwner",
      "type": "error"
    },
    {
      "inputs": [
        {
          "internalType": "address",
          "name": "account",
          "type": "address"
        }
      ],
      "name": "OwnableUnauthorizedAccount",
      "type": "error"
    },
    {
      "inputs": [
        {
          "internalType": "uint256",
          "name": "srId",
          "type": "uint256"
        },
        {
          "internalType": "string",
          "name": "message",
          "type": "string"
        }
      ],
      "name": "SRDoesNotExists",
      "type": "error"
    },
    {
      "inputs": [
        {
          "internalType": "uint256",
          "name": "srId",
          "type": "uint256"
        },
        {
          "internalType": "string",
          "name": "message",
          "type": "string"
        }
      ],
      "name": "SROutOfRegion",
      "type": "error"
    },
    {
      "inputs": [
        {
          "internalType": "uint256",
          "name": "srId",
          "type": "uint256"
        },
        {
          "internalType": "string",
          "name": "message",
          "type": "string"
        }
      ],
      "name": "SelfVoteNotAllowed",
      "type": "error"
    },
    {
      "inputs": [
        {
          "internalType": "uint256",
          "name": "srId",
          "type": "uint256"
        },
        {
          "internalType": "string",
          "name": "message",
          "type": "string"
        }
      ],
      "name": "VotingEndedAlready",
      "type": "error"
    },
    {
      "inputs": [
        {
          "internalType": "address",
          "name": "from",
          "type": "address"
        },
        {
          "internalType": "uint256",
          "name": "srId",
          "type": "uint256"
        },
        {
          "internalType": "string",
          "name": "message",
          "type": "string"
        }
      ],
      "name": "VotingInProgress",
      "type": "error"
    },
    {
      "anonymous": false,
      "inputs": [
        {
          "indexed": false,
          "internalType": "address",
          "name": "from",
          "type": "address"
        },
        {
          "indexed": false,
          "internalType": "uint256",
          "name": "srId",
          "type": "uint256"
        },
        {
          "components": [
            {
              "internalType": "uint256",
              "name": "requestId",
              "type": "uint256"
            },
            {
              "internalType": "string",
              "name": "description",
              "type": "string"
            },
            {
              "internalType": "address",
              "name": "shipperUID",
              "type": "address"
            },
            {
              "internalType": "address",
              "name": "receiverUID",
              "type": "address"
            },
            {
              "internalType": "string",
              "name": "originGeoHash",
              "type": "string"
            },
            {
              "internalType": "string",
              "name": "destGeoHash",
              "type": "string"
            },
            {
              "internalType": "uint256",
              "name": "cargoInsurableValue",
              "type": "uint256"
            },
            {
              "internalType": "uint256",
              "name": "serviceFee",
              "type": "uint256"
            },
            {
              "internalType": "uint256",
              "name": "requestedPickupTime",
              "type": "uint256"
            },
            {
              "internalType": "uint256",
              "name": "requestedDeliveryTime",
              "type": "uint256"
            },
            {
              "internalType": "uint256",
              "name": "auctionEndTime",
              "type": "uint256"
            },
            {
              "internalType": "address",
              "name": "driverUID",
              "type": "address"
            },
            {
              "internalType": "enum Types.Status",
              "name": "status",
              "type": "uint8"
            },
            {
              "internalType": "string",
              "name": "disputeWinner",
              "type": "string"
            },
            {
              "components": [
                {
                  "internalType": "address",
                  "name": "uid",
                  "type": "address"
                },
                {
                  "internalType": "uint256",
                  "name": "serviceFee",
                  "type": "uint256"
                }
              ],
              "internalType": "struct Types.BidInfo",
              "name": "bidInfo",
              "type": "tuple"
            },
            {
              "internalType": "bool",
              "name": "disputeVoteGiven",
              "type": "bool"
            }
          ],
          "indexed": false,
          "internalType": "struct Types.SRInfo",
          "name": "srInfo",
          "type": "tuple"
        }
      ],
      "name": "NewSRInDisputeSystem",
      "type": "event"
    },
    {
      "anonymous": false,
      "inputs": [
        {
          "indexed": false,
          "internalType": "uint256",
          "name": "srId",
          "type": "uint256"
        },
        {
          "indexed": false,
          "internalType": "string",
          "name": "message",
          "type": "string"
        }
      ],
      "name": "NewVoteAdded",
      "type": "event"
    },
    {
      "anonymous": false,
      "inputs": [
        {
          "indexed": true,
          "internalType": "address",
          "name": "previousOwner",
          "type": "address"
        },
        {
          "indexed": true,
          "internalType": "address",
          "name": "newOwner",
          "type": "address"
        }
      ],
      "name": "OwnershipTransferred",
      "type": "event"
    },
    {
      "inputs": [
        {
          "internalType": "address",
          "name": "from",
          "type": "address"
        },
        {
          "components": [
            {
              "internalType": "uint256",
              "name": "requestId",
              "type": "uint256"
            },
            {
              "internalType": "string",
              "name": "description",
              "type": "string"
            },
            {
              "internalType": "address",
              "name": "shipperUID",
              "type": "address"
            },
            {
              "internalType": "address",
              "name": "receiverUID",
              "type": "address"
            },
            {
              "internalType": "string",
              "name": "originGeoHash",
              "type": "string"
            },
            {
              "internalType": "string",
              "name": "destGeoHash",
              "type": "string"
            },
            {
              "internalType": "uint256",
              "name": "cargoInsurableValue",
              "type": "uint256"
            },
            {
              "internalType": "uint256",
              "name": "serviceFee",
              "type": "uint256"
            },
            {
              "internalType": "uint256",
              "name": "requestedPickupTime",
              "type": "uint256"
            },
            {
              "internalType": "uint256",
              "name": "requestedDeliveryTime",
              "type": "uint256"
            },
            {
              "internalType": "uint256",
              "name": "auctionEndTime",
              "type": "uint256"
            },
            {
              "internalType": "address",
              "name": "driverUID",
              "type": "address"
            },
            {
              "internalType": "enum Types.Status",
              "name": "status",
              "type": "uint8"
            },
            {
              "internalType": "string",
              "name": "disputeWinner",
              "type": "string"
            },
            {
              "components": [
                {
                  "internalType": "address",
                  "name": "uid",
                  "type": "address"
                },
                {
                  "internalType": "uint256",
                  "name": "serviceFee",
                  "type": "uint256"
                }
              ],
              "internalType": "struct Types.BidInfo",
              "name": "bidInfo",
              "type": "tuple"
            },
            {
              "internalType": "bool",
              "name": "disputeVoteGiven",
              "type": "bool"
            }
          ],
          "internalType": "struct Types.SRInfo",
          "name": "srInfo",
          "type": "tuple"
        }
      ],
      "name": "addNewDisputedSR",
      "outputs": [],
      "stateMutability": "nonpayable",
      "type": "function"
    },
    {
      "inputs": [
        {
          "internalType": "uint256",
          "name": "_srId",
          "type": "uint256"
        }
      ],
      "name": "decideDisputeWinner",
      "outputs": [
        {
          "components": [
            {
              "internalType": "uint256",
              "name": "requestId",
              "type": "uint256"
            },
            {
              "internalType": "string",
              "name": "description",
              "type": "string"
            },
            {
              "internalType": "address",
              "name": "shipperUID",
              "type": "address"
            },
            {
              "internalType": "address",
              "name": "receiverUID",
              "type": "address"
            },
            {
              "internalType": "string",
              "name": "originGeoHash",
              "type": "string"
            },
            {
              "internalType": "string",
              "name": "destGeoHash",
              "type": "string"
            },
            {
              "internalType": "uint256",
              "name": "cargoInsurableValue",
              "type": "uint256"
            },
            {
              "internalType": "uint256",
              "name": "serviceFee",
              "type": "uint256"
            },
            {
              "internalType": "uint256",
              "name": "requestedPickupTime",
              "type": "uint256"
            },
            {
              "internalType": "uint256",
              "name": "requestedDeliveryTime",
              "type": "uint256"
            },
            {
              "internalType": "uint256",
              "name": "auctionEndTime",
              "type": "uint256"
            },
            {
              "internalType": "address",
              "name": "driverUID",
              "type": "address"
            },
            {
              "internalType": "enum Types.Status",
              "name": "status",
              "type": "uint8"
            },
            {
              "internalType": "string",
              "name": "disputeWinner",
              "type": "string"
            },
            {
              "components": [
                {
                  "internalType": "address",
                  "name": "uid",
                  "type": "address"
                },
                {
                  "internalType": "uint256",
                  "name": "serviceFee",
                  "type": "uint256"
                }
              ],
              "internalType": "struct Types.BidInfo",
              "name": "bidInfo",
              "type": "tuple"
            },
            {
              "internalType": "bool",
              "name": "disputeVoteGiven",
              "type": "bool"
            }
          ],
          "internalType": "struct Types.SRInfo",
          "name": "",
          "type": "tuple"
        }
      ],
      "stateMutability": "nonpayable",
      "type": "function"
    },
    {
      "inputs": [],
      "name": "getAllDisputedSRInDriverArea",
      "outputs": [
        {
          "components": [
            {
              "internalType": "uint256",
              "name": "requestId",
              "type": "uint256"
            },
            {
              "internalType": "string",
              "name": "description",
              "type": "string"
            },
            {
              "internalType": "address",
              "name": "shipperUID",
              "type": "address"
            },
            {
              "internalType": "address",
              "name": "receiverUID",
              "type": "address"
            },
            {
              "internalType": "string",
              "name": "originGeoHash",
              "type": "string"
            },
            {
              "internalType": "string",
              "name": "destGeoHash",
              "type": "string"
            },
            {
              "internalType": "uint256",
              "name": "cargoInsurableValue",
              "type": "uint256"
            },
            {
              "internalType": "uint256",
              "name": "serviceFee",
              "type": "uint256"
            },
            {
              "internalType": "uint256",
              "name": "requestedPickupTime",
              "type": "uint256"
            },
            {
              "internalType": "uint256",
              "name": "requestedDeliveryTime",
              "type": "uint256"
            },
            {
              "internalType": "uint256",
              "name": "auctionEndTime",
              "type": "uint256"
            },
            {
              "internalType": "address",
              "name": "driverUID",
              "type": "address"
            },
            {
              "internalType": "enum Types.Status",
              "name": "status",
              "type": "uint8"
            },
            {
              "internalType": "string",
              "name": "disputeWinner",
              "type": "string"
            },
            {
              "components": [
                {
                  "internalType": "address",
                  "name": "uid",
                  "type": "address"
                },
                {
                  "internalType": "uint256",
                  "name": "serviceFee",
                  "type": "uint256"
                }
              ],
              "internalType": "struct Types.BidInfo",
              "name": "bidInfo",
              "type": "tuple"
            },
            {
              "internalType": "bool",
              "name": "disputeVoteGiven",
              "type": "bool"
            }
          ],
          "internalType": "struct Types.SRInfo[]",
          "name": "",
          "type": "tuple[]"
        }
      ],
      "stateMutability": "view",
      "type": "function"
    },
    {
      "inputs": [],
      "name": "owner",
      "outputs": [
        {
          "internalType": "address",
          "name": "",
          "type": "address"
        }
      ],
      "stateMutability": "view",
      "type": "function"
    },
    {
      "inputs": [],
      "name": "renounceOwnership",
      "outputs": [],
      "stateMutability": "nonpayable",
      "type": "function"
    },
    {
      "inputs": [
        {
          "internalType": "address",
          "name": "newOwner",
          "type": "address"
        }
      ],
      "name": "transferOwnership",
      "outputs": [],
      "stateMutability": "nonpayable",
      "type": "function"
    },
    {
      "inputs": [
        {
          "internalType": "address",
          "name": "_addr",
          "type": "address"
        }
      ],
      "name": "updateServiceRequestAddr",
      "outputs": [],
      "stateMutability": "nonpayable",
      "type": "function"
    },
    {
      "inputs": [
        {
          "internalType": "uint256",
          "name": "_srId",
          "type": "uint256"
        },
        {
          "internalType": "enum Types.WhomToVote",
          "name": "whomToVote",
          "type": "uint8"
        }
      ],
      "name": "vote",
      "outputs": [],
      "stateMutability": "nonpayable",
      "type": "function"
    },
    {
      "inputs": [
        {
          "internalType": "uint256",
          "name": "",
          "type": "uint256"
        }
      ],
      "name": "voteCounts",
      "outputs": [
        {
          "internalType": "uint256",
          "name": "driver",
          "type": "uint256"
        },
        {
          "internalType": "uint256",
          "name": "receiver",
          "type": "uint256"
        },
        {
          "internalType": "uint256",
          "name": "total",
          "type": "uint256"
        }
      ],
      "stateMutability": "view",
      "type": "function"
    }
  ],
  "bytecode": "0x60c0604052600360a052600480546001600160a01b03191690553480156200002657600080fd5b50604051620028f3380380620028f3833981016040819052620000499162000105565b816001600160a01b0381166200007957604051631e4fbdf760e01b81526000600482015260240160405180910390fd5b620000848162000098565b506001600160a01b0316608052506200013d565b600080546001600160a01b038381166001600160a01b0319831681178455604051919092169283917f8be0079c531659141344cd1fd0a4f28419497f9722a3daafe3b4186f6b6457e09190a35050565b80516001600160a01b03811681146200010057600080fd5b919050565b600080604083850312156200011957600080fd5b6200012483620000e8565b91506200013460208401620000e8565b90509250929050565b60805160a05161276d6200018660003960008181610acd01526111640152600081816101d901528181610802015281816109a201528181610d020152611c82015261276d6000f3fe608060405234801561001057600080fd5b50600436106100935760003560e01c80638da5cb5b116100665780638da5cb5b14610118578063943e821614610133578063bf79a7b514610146578063d5cc26c114610159578063f2fde38b1461017957600080fd5b80633c3a220d14610098578063636ed6a9146100e657806369d29fed146100fb578063715018a614610110575b600080fd5b6100c66100a6366004611ea3565b600260208190526000918252604090912080546001820154919092015483565b604080519384526020840192909252908201526060015b60405180910390f35b6100f96100f4366004611ed8565b61018c565b005b6101036101b6565b6040516100dd91906120d4565b6100f96107d6565b6000546040516001600160a01b0390911681526020016100dd565b6100f9610141366004612138565b6107ea565b6100f96101543660046122d1565b610e06565b61016c610167366004611ea3565b6110b8565b6040516100dd919061246d565b6100f9610187366004611ed8565b611562565b6101946115a0565b600480546001600160a01b0319166001600160a01b0392909216919091179055565b604051635151782b60e01b81523360048201526060906000906001600160a01b037f00000000000000000000000000000000000000000000000000000000000000001690635151782b90602401600060405180830381865afa158015610220573d6000803e3d6000fd5b505050506040513d6000823e601f3d908101601f191682016040526102489190810190612480565b60015490915060009067ffffffffffffffff8111156102695761026961216c565b6040519080825280602002602001820160405280156102a257816020015b61028f611db6565b8152602001906001900390816102875790505b5090506000805b60015481101561072b576000600182815481106102c8576102c86124f7565b906000526020600020906010020160405180610200016040529081600082015481526020016001820180546102fc9061250d565b80601f01602080910402602001604051908101604052809291908181526020018280546103289061250d565b80156103755780601f1061034a57610100808354040283529160200191610375565b820191906000526020600020905b81548152906001019060200180831161035857829003601f168201915b505050918352505060028201546001600160a01b03908116602083015260038301541660408201526004820180546060909201916103b29061250d565b80601f01602080910402602001604051908101604052809291908181526020018280546103de9061250d565b801561042b5780601f106104005761010080835404028352916020019161042b565b820191906000526020600020905b81548152906001019060200180831161040e57829003601f168201915b505050505081526020016005820180546104449061250d565b80601f01602080910402602001604051908101604052809291908181526020018280546104709061250d565b80156104bd5780601f10610492576101008083540402835291602001916104bd565b820191906000526020600020905b8154815290600101906020018083116104a057829003601f168201915b505050918352505060068201546020820152600782015460408201526008820154606082015260098201546080820152600a82015460a0820152600b808301546001600160a01b03811660c084015260e090920191600160a01b900460ff169081111561052c5761052c611f4a565b600b81111561053d5761053d611f4a565b8152602001600c820180546105519061250d565b80601f016020809104026020016040519081016040528092919081815260200182805461057d9061250d565b80156105ca5780601f1061059f576101008083540402835291602001916105ca565b820191906000526020600020905b8154815290600101906020018083116105ad57829003601f168201915b5050509183525050604080518082018252600d8401546001600160a01b03168152600e840154602082810191909152830152600f9092015460ff161515910152608081015190915061061d9086906115cd565b80156106325750610632858260a001516115cd565b1561072257805160009081526003602090815260408083208054825181850281018501909352808352919290919083018282801561069957602002820191906000526020600020905b81546001600160a01b0316815260019091019060200180831161067b575b5050505050905060005b81518110156106f357336001600160a01b03168282815181106106c8576106c86124f7565b60200260200101516001600160a01b0316036106eb5760016101e08401526106f3565b6001016106a3565b5081858581518110610707576107076124f7565b6020026020010181905250838061071d90612557565b945050505b506001016102a9565b5060008167ffffffffffffffff8111156107475761074761216c565b60405190808252806020026020018201604052801561078057816020015b61076d611db6565b8152602001906001900390816107655790505b50905060005b828110156107cd578381815181106107a0576107a06124f7565b60200260200101518282815181106107ba576107ba6124f7565b6020908102919091010152600101610786565b50949350505050565b6107de6115a0565b6107e86000611664565b565b604051630b1fba9160e11b81523360048201819052907f00000000000000000000000000000000000000000000000000000000000000006001600160a01b03169063163f75229060240160006040518083038186803b15801561084c57600080fd5b505afa158015610860573d6000803e3d6000fd5b50505060008481526003602090815260408083208054825181850281018501909352808352939450909290918301828280156108c557602002820191906000526020600020905b81546001600160a01b031681526001909101906020018083116108a7575b5050505050905060005b815181101561097857336001600160a01b03168282815181106108f4576108f46124f7565b60200260200101516001600160a01b0316036109705784604051632de2056960e21b81526004016109679181526040602082018190526022908201527f416c726561647920766f74656420666f7220746869732064697370757465642060608201526129a960f11b608082015260a00190565b60405180910390fd5b6001016108cf565b506000610984856116b4565b8051604051635151782b60e01b8152336004820152919250906000907f00000000000000000000000000000000000000000000000000000000000000006001600160a01b031690635151782b90602401600060405180830381865afa1580156109f1573d6000803e3d6000fd5b505050506040513d6000823e601f3d908101601f19168201604052610a199190810190612480565b9050610a298183608001516115cd565b1580610a405750610a3e818360a001516115cd565b155b15610a96578660405163024b7feb60e01b815260040161096791815260406020808301829052908201527f5352206973206e6f7420696e20796f7572207365727669636520726567696f6e606082015260800190565b60008781526002602081815260409283902083516060810185528154815260018201549281019290925290910154918101829052907f000000000000000000000000000000000000000000000000000000000000000011610c3c5760208101518151148015610b11575060408301516001600160a01b031633145b15610be157610b208888611abc565b60008881526003602090815260408083208054600181018255908452919092200180546001600160a01b03191633179055517fd4da6f103fd6c2ccd5b501ca1478614c7341b58316aeb8d8a86c91ade6cc306690610bcf908a81526040602082018190526030908201527f5368697070657220766f746564207375636365737366756c6c7920617320746860608201526f6520646973707574652069732074696560801b608082015260a00190565b60405180910390a15050505050505050565b610bea88611b56565b87604051631dd1a78760e11b81526004016109679181526040602082018190526018908201527f566f74696e672068617320616c726561647920656e6465640000000000000000606082015260800190565b82604001516001600160a01b0316336001600160a01b03161480610c75575082606001516001600160a01b0316336001600160a01b0316145b80610c9657508261016001516001600160a01b0316336001600160a01b0316145b15610ced5787604051638294c43960e01b81526004016109679181526040602082018190526018908201527f53656c6620766f7465206973206e6f7420616c6c6f7765640000000000000000606082015260800190565b604051630a104c5360e41b81523360048201527f00000000000000000000000000000000000000000000000000000000000000006001600160a01b03169063a104c5309060240160006040518083038186803b158015610d4c57600080fd5b505afa158015610d60573d6000803e3d6000fd5b50505060008981526003602090815260408220805460018101825590835291200180546001600160a01b0319163317905550610d9c8888611abc565b7fd4da6f103fd6c2ccd5b501ca1478614c7341b58316aeb8d8a86c91ade6cc306688604051610bcf91815260406020808301829052908201527f4e657720766f74652069732061646465642062792044414f206d656d62657273606082015260800190565b505050565b60045433906001600160a01b03168114610e35578060405163c4738e7760e01b81526004016109679190612570565b600a826101800151600b811115610e4e57610e4e611f4a565b14610e7057828260405163ed48a4d960e01b81526004016109679291906125c9565b600180548082018255600091909152825160109091027fb10e2d527612073b26eecdfd717e6a320cf44b4afac2b0732d9fcbe2b7fa0cf6810191825560208401518492917fb10e2d527612073b26eecdfd717e6a320cf44b4afac2b0732d9fcbe2b7fa0cf70190610ee1908261263d565b5060408201516002820180546001600160a01b039283166001600160a01b031991821617909155606084015160038401805491909316911617905560808201516004820190610f30908261263d565b5060a08201516005820190610f45908261263d565b5060c0820151600682015560e0820151600782015561010082015160088201556101208201516009820155610140820151600a820155610160820151600b80830180546001600160a01b039093166001600160a01b03198416811782556101808601519391926001600160a81b03199092161790600160a01b908490811115610fd057610fd0611f4a565b02179055506101a0820151600c820190610fea908261263d565b506101c08201518051600d830180546001600160a01b0319166001600160a01b03909216919091179055602090810151600e8301556101e090920151600f909101805460ff1916911515919091179055604080516060810182526000808252818401818152828401828152875183526002958690529184902083518155905160018201559051930192909255835190517ff48576cebf43dbeb2fa9e391843c5437cb3b661b63a51b078359f90b20f083ba916110aa9187919087906126fd565b60405180910390a150505050565b6110c0611db6565b60045433906001600160a01b031681146110ef578060405163c4738e7760e01b81526004016109679190612570565b60006110fa846116b4565b8051602082015191925090600b826101800151600b81111561111e5761111e611f4a565b0361112d5750925061155c9050565b60008681526002602081815260409283902083516060810185528154815260018201549281019290925290910154918101829052907f000000000000000000000000000000000000000000000000000000000000000011156111f7576040516362bc2b6f60e01b81523360048201526024810188905260606044820152602f60648201527f566f74696e67206f6e207468697320646973707574656420535220697320737460848201526e696c6c20696e2070726f677265737360881b60a482015260c401610967565b61120087611b56565b60018281548110611213576112136124f7565b906000526020600020906010020160405180610200016040529081600082015481526020016001820180546112479061250d565b80601f01602080910402602001604051908101604052809291908181526020018280546112739061250d565b80156112c05780601f10611295576101008083540402835291602001916112c0565b820191906000526020600020905b8154815290600101906020018083116112a357829003601f168201915b505050918352505060028201546001600160a01b03908116602083015260038301541660408201526004820180546060909201916112fd9061250d565b80601f01602080910402602001604051908101604052809291908181526020018280546113299061250d565b80156113765780601f1061134b57610100808354040283529160200191611376565b820191906000526020600020905b81548152906001019060200180831161135957829003601f168201915b5050505050815260200160058201805461138f9061250d565b80601f01602080910402602001604051908101604052809291908181526020018280546113bb9061250d565b80156114085780601f106113dd57610100808354040283529160200191611408565b820191906000526020600020905b8154815290600101906020018083116113eb57829003601f168201915b505050918352505060068201546020820152600782015460408201526008820154606082015260098201546080820152600a82015460a0820152600b808301546001600160a01b03811660c084015260e090920191600160a01b900460ff169081111561147757611477611f4a565b600b81111561148857611488611f4a565b8152602001600c8201805461149c9061250d565b80601f01602080910402602001604051908101604052809291908181526020018280546114c89061250d565b80156115155780601f106114ea57610100808354040283529160200191611515565b820191906000526020600020905b8154815290600101906020018083116114f857829003601f168201915b5050509183525050604080518082018252600d8401546001600160a01b03168152600e840154602082810191909152830152600f9092015460ff1615159101529550505050505b50919050565b61156a6115a0565b6001600160a01b03811661159457604051631e4fbdf760e01b815260006004820152602401610967565b61159d81611664565b50565b6000546001600160a01b031633146107e85760405163118cdaa760e01b8152336004820152602401610967565b805182516000918491849110156115e95760009250505061165e565b60005b825181101561165657818181518110611607576116076124f7565b602001015160f81c60f81b6001600160f81b03191683828151811061162e5761162e6124f7565b01602001516001600160f81b0319161461164e576000935050505061165e565b6001016115ec565b506001925050505b92915050565b600080546001600160a01b038381166001600160a01b0319831681178455604051919092169283917f8be0079c531659141344cd1fd0a4f28419497f9722a3daafe3b4186f6b6457e09190a35050565b6116bc611e83565b6116c4611e83565b60005b600154811015611a695783600182815481106116e5576116e56124f7565b90600052602060002090601002016000015403611a61576001818154811061170f5761170f6124f7565b906000526020600020906010020160405180610200016040529081600082015481526020016001820180546117439061250d565b80601f016020809104026020016040519081016040528092919081815260200182805461176f9061250d565b80156117bc5780601f10611791576101008083540402835291602001916117bc565b820191906000526020600020905b81548152906001019060200180831161179f57829003601f168201915b505050918352505060028201546001600160a01b03908116602083015260038301541660408201526004820180546060909201916117f99061250d565b80601f01602080910402602001604051908101604052809291908181526020018280546118259061250d565b80156118725780601f1061184757610100808354040283529160200191611872565b820191906000526020600020905b81548152906001019060200180831161185557829003601f168201915b5050505050815260200160058201805461188b9061250d565b80601f01602080910402602001604051908101604052809291908181526020018280546118b79061250d565b80156119045780601f106118d957610100808354040283529160200191611904565b820191906000526020600020905b8154815290600101906020018083116118e757829003601f168201915b505050918352505060068201546020820152600782015460408201526008820154606082015260098201546080820152600a82015460a0820152600b808301546001600160a01b03811660c084015260e090920191600160a01b900460ff169081111561197357611973611f4a565b600b81111561198457611984611f4a565b8152602001600c820180546119989061250d565b80601f01602080910402602001604051908101604052809291908181526020018280546119c49061250d565b8015611a115780601f106119e657610100808354040283529160200191611a11565b820191906000526020600020905b8154815290600101906020018083116119f457829003601f168201915b5050509183525050604080518082018252600d8401546001600160a01b03168152600e84015460208281019190915280840191909152600f9093015460ff16151591015290835282015292915050565b6001016116c7565b50826040516314558a6b60e11b8152600401610967918152604060208201819052601b908201527f446973707574656420535220646f6573206e6f74206578697374730000000000606082015260800190565b6000816002811115611ad057611ad0611f4a565b03611af9576000828152600260205260408120805491611aef83612557565b9190505550611b1c565b6000828152600260205260408120600101805491611b1683612557565b91905055505b600082815260026020526040902060018101549054611b3b9190612724565b60009283526002602081905260409093209092019190915550565b6000818152600260208181526040808420815160608101835281548152600182015493810193909352909201549181019190915290611b94836116b4565b8051602080830151908501518551939450919290911015611c5057600b60018281548110611bc457611bc46124f7565b9060005260206000209060100201600b0160146101000a81548160ff0219169083600b811115611bf657611bf6611f4a565b021790555060405180604001604052806006815260200165222924ab22a960d11b81525060018281548110611c2d57611c2d6124f7565b9060005260206000209060100201600c019081611c4a919061263d565b50611daf565b602084015184511015611d6057610160820151604051633c9b0ee960e11b81526001600160a01b0391821660048201527f0000000000000000000000000000000000000000000000000000000000000000909116906379361dd290602401600060405180830381600087803b158015611cc857600080fd5b505af1158015611cdc573d6000803e3d6000fd5b50505050600b60018281548110611cf557611cf56124f7565b9060005260206000209060100201600b0160146101000a81548160ff0219169083600b811115611d2757611d27611f4a565b0217905550604051806040016040528060088152602001672922a1a2a4ab22a960c11b81525060018281548110611c2d57611c2d6124f7565b604051806040016040528060048152602001634452415760e01b81525060018281548110611d9057611d906124f7565b9060005260206000209060100201600c019081611dad919061263d565b505b5050505050565b604051806102000160405280600081526020016060815260200160006001600160a01b0316815260200160006001600160a01b031681526020016060815260200160608152602001600081526020016000815260200160008152602001600081526020016000815260200160006001600160a01b031681526020016000600b811115611e4457611e44611f4a565b815260200160608152602001611e76604051806040016040528060006001600160a01b03168152602001600081525090565b8152600060209091015290565b6040518060400160405280611e96611db6565b8152602001600081525090565b600060208284031215611eb557600080fd5b5035919050565b80356001600160a01b0381168114611ed357600080fd5b919050565b600060208284031215611eea57600080fd5b611ef382611ebc565b9392505050565b60005b83811015611f15578181015183820152602001611efd565b50506000910152565b60008151808452611f36816020860160208601611efa565b601f01601f19169290920160200192915050565b634e487b7160e01b600052602160045260246000fd5b600c8110611f7e57634e487b7160e01b600052602160045260246000fd5b9052565b6000610220825184526020830151816020860152611fa282860182611f1e565b9150506040830151611fbf60408601826001600160a01b03169052565b506060830151611fda60608601826001600160a01b03169052565b5060808301518482036080860152611ff28282611f1e565b91505060a083015184820360a086015261200c8282611f1e565b91505060c083015160c085015260e083015160e085015261010080840151818601525061012080840151818601525061014080840151818601525061016080840151612062828701826001600160a01b03169052565b50506101808084015161207782870182611f60565b50506101a080840151858303828701526120918382611f1e565b925050506101c0808401516120bb8287018280516001600160a01b03168252602090810151910152565b50506101e0830151801515610200860152509392505050565b600060208083016020845280855180835260408601915060408160051b87010192506020870160005b8281101561212b57603f19888603018452612119858351611f82565b945092850192908501906001016120fd565b5092979650505050505050565b6000806040838503121561214b57600080fd5b8235915060208301356003811061216157600080fd5b809150509250929050565b634e487b7160e01b600052604160045260246000fd5b604051610200810167ffffffffffffffff811182821017156121a6576121a661216c565b60405290565b604051601f8201601f1916810167ffffffffffffffff811182821017156121d5576121d561216c565b604052919050565b600067ffffffffffffffff8211156121f7576121f761216c565b50601f01601f191660200190565b600082601f83011261221657600080fd5b8135612229612224826121dd565b6121ac565b81815284602083860101111561223e57600080fd5b816020850160208301376000918101602001919091529392505050565b8035600c8110611ed357600080fd5b60006040828403121561227c57600080fd5b6040516040810181811067ffffffffffffffff8211171561229f5761229f61216c565b6040529050806122ae83611ebc565b8152602083013560208201525092915050565b80358015158114611ed357600080fd5b600080604083850312156122e457600080fd5b6122ed83611ebc565b9150602083013567ffffffffffffffff8082111561230a57600080fd5b90840190610220828703121561231f57600080fd5b612327612182565b8235815260208301358281111561233d57600080fd5b61234988828601612205565b60208301525061235b60408401611ebc565b604082015261236c60608401611ebc565b606082015260808301358281111561238357600080fd5b61238f88828601612205565b60808301525060a0830135828111156123a757600080fd5b6123b388828601612205565b60a08301525060c0838101359082015260e080840135908201526101008084013590820152610120808401359082015261014080840135908201526101606123fc818501611ebc565b9082015261018061240e84820161225b565b908201526101a0838101358381111561242657600080fd5b61243289828701612205565b8284015250506101c091506124498783850161226a565b8282015261245a61020084016122c1565b6101e08201528093505050509250929050565b602081526000611ef36020830184611f82565b60006020828403121561249257600080fd5b815167ffffffffffffffff8111156124a957600080fd5b8201601f810184136124ba57600080fd5b80516124c8612224826121dd565b8181528560208385010111156124dd57600080fd5b6124ee826020830160208601611efa565b95945050505050565b634e487b7160e01b600052603260045260246000fd5b600181811c9082168061252157607f821691505b60208210810361155c57634e487b7160e01b600052602260045260246000fd5b634e487b7160e01b600052601160045260246000fd5b60006001820161256957612569612541565b5060010190565b6001600160a01b039190911681526040602082018190526027908201527f596f7520617265206e6f7420616c6c6f77656420746f2063616c6c2074686973606082015266081b595d1a1bd960ca1b608082015260a00190565b6001600160a01b03831681526040602082018190526000906125ed90830184611f82565b949350505050565b601f821115610e01576000816000526020600020601f850160051c8101602086101561261e5750805b601f850160051c820191505b81811015611dad5782815560010161262a565b815167ffffffffffffffff8111156126575761265761216c565b61266b81612665845461250d565b846125f5565b602080601f8311600181146126a057600084156126885750858301515b600019600386901b1c1916600185901b178555611dad565b600085815260208120601f198616915b828110156126cf578886015182559484019460019091019084016126b0565b50858210156126ed5787850151600019600388901b60f8161c191681555b5050505050600190811b01905550565b60018060a01b03841681528260208201526060604082015260006124ee6060830184611f82565b8082018082111561165e5761165e61254156fea26469706673582212208eca5c22b90c69d30ae7219c5b1bdbbd74c3a8a61eb651cec9709c2747e8efdf64736f6c63430008180033",
  "linkReferences": {},
  "deployedLinkReferences": {}
}