{
  "_format": "hh-sol-artifact-1",
  "contractName": "DrivingLicenseNFT",
  "sourceName": "contracts/DrivingLicenseNFT.sol",
  "abi": [
    {
      "inputs": [
        {
          "internalType": "address",
          "name": "initialOwner",
          "type": "address"
        }
      ],
      "stateMutability": "nonpayable",
      "type": "constructor"
    },
    {
      "inputs": [
        {
          "internalType": "uint256",
          "name": "tokenId",
          "type": "uint256"
        },
        {
          "internalType": "string",
          "name": "message",
          "type": "string"
        }
      ],
      "name": "DLInfoNotFound",
      "type": "error"
    },
    {
      "inputs": [],
      "name": "ERC721EnumerableForbiddenBatchMint",
      "type": "error"
    },
    {
      "inputs": [
        {
          "internalType": "address",
          "name": "sender",
          "type": "address"
        },
        {
          "internalType": "uint256",
          "name": "tokenId",
          "type": "uint256"
        },
        {
          "internalType": "address",
          "name": "owner",
          "type": "address"
        }
      ],
      "name": "ERC721IncorrectOwner",
      "type": "error"
    },
    {
      "inputs": [
        {
          "internalType": "address",
          "name": "operator",
          "type": "address"
        },
        {
          "internalType": "uint256",
          "name": "tokenId",
          "type": "uint256"
        }
      ],
      "name": "ERC721InsufficientApproval",
      "type": "error"
    },
    {
      "inputs": [
        {
          "internalType": "address",
          "name": "approver",
          "type": "address"
        }
      ],
      "name": "ERC721InvalidApprover",
      "type": "error"
    },
    {
      "inputs": [
        {
          "internalType": "address",
          "name": "operator",
          "type": "address"
        }
      ],
      "name": "ERC721InvalidOperator",
      "type": "error"
    },
    {
      "inputs": [
        {
          "internalType": "address",
          "name": "owner",
          "type": "address"
        }
      ],
      "name": "ERC721InvalidOwner",
      "type": "error"
    },
    {
      "inputs": [
        {
          "internalType": "address",
          "name": "receiver",
          "type": "address"
        }
      ],
      "name": "ERC721InvalidReceiver",
      "type": "error"
    },
    {
      "inputs": [
        {
          "internalType": "address",
          "name": "sender",
          "type": "address"
        }
      ],
      "name": "ERC721InvalidSender",
      "type": "error"
    },
    {
      "inputs": [
        {
          "internalType": "uint256",
          "name": "tokenId",
          "type": "uint256"
        }
      ],
      "name": "ERC721NonexistentToken",
      "type": "error"
    },
    {
      "inputs": [
        {
          "internalType": "address",
          "name": "owner",
          "type": "address"
        },
        {
          "internalType": "uint256",
          "name": "index",
          "type": "uint256"
        }
      ],
      "name": "ERC721OutOfBoundsIndex",
      "type": "error"
    },
    {
      "inputs": [],
      "name": "EnforcedPause",
      "type": "error"
    },
    {
      "inputs": [],
      "name": "ExpectedPause",
      "type": "error"
    },
    {
      "inputs": [
        {
          "internalType": "address",
          "name": "from",
          "type": "address"
        },
        {
          "internalType": "address",
          "name": "to",
          "type": "address"
        },
        {
          "internalType": "string",
          "name": "message",
          "type": "string"
        }
      ],
      "name": "InternalMintError",
      "type": "error"
    },
    {
      "inputs": [
        {
          "internalType": "string",
          "name": "name",
          "type": "string"
        },
        {
          "internalType": "string",
          "name": "value",
          "type": "string"
        },
        {
          "internalType": "string",
          "name": "message",
          "type": "string"
        }
      ],
      "name": "InvalidDLInput",
      "type": "error"
    },
    {
      "inputs": [
        {
          "internalType": "address",
          "name": "owner",
          "type": "address"
        }
      ],
      "name": "OwnableInvalidOwner",
      "type": "error"
    },
    {
      "inputs": [
        {
          "internalType": "address",
          "name": "account",
          "type": "address"
        }
      ],
      "name": "OwnableUnauthorizedAccount",
      "type": "error"
    },
    {
      "inputs": [
        {
          "internalType": "uint256",
          "name": "tokenId",
          "type": "uint256"
        },
        {
          "internalType": "string",
          "name": "message",
          "type": "string"
        }
      ],
      "name": "OwnerUnauthorized",
      "type": "error"
    },
    {
      "inputs": [
        {
          "internalType": "string",
          "name": "name",
          "type": "string"
        },
        {
          "internalType": "string",
          "name": "id",
          "type": "string"
        },
        {
          "internalType": "string",
          "name": "image",
          "type": "string"
        },
        {
          "internalType": "string",
          "name": "message",
          "type": "string"
        }
      ],
      "name": "PublicMintError",
      "type": "error"
    },
    {
      "anonymous": false,
      "inputs": [
        {
          "indexed": true,
          "internalType": "address",
          "name": "owner",
          "type": "address"
        },
        {
          "indexed": true,
          "internalType": "address",
          "name": "approved",
          "type": "address"
        },
        {
          "indexed": true,
          "internalType": "uint256",
          "name": "tokenId",
          "type": "uint256"
        }
      ],
      "name": "Approval",
      "type": "event"
    },
    {
      "anonymous": false,
      "inputs": [
        {
          "indexed": true,
          "internalType": "address",
          "name": "owner",
          "type": "address"
        },
        {
          "indexed": true,
          "internalType": "address",
          "name": "operator",
          "type": "address"
        },
        {
          "indexed": false,
          "internalType": "bool",
          "name": "approved",
          "type": "bool"
        }
      ],
      "name": "ApprovalForAll",
      "type": "event"
    },
    {
      "anonymous": false,
      "inputs": [
        {
          "indexed": true,
          "internalType": "address",
          "name": "previousOwner",
          "type": "address"
        },
        {
          "indexed": true,
          "internalType": "address",
          "name": "newOwner",
          "type": "address"
        }
      ],
      "name": "OwnershipTransferred",
      "type": "event"
    },
    {
      "anonymous": false,
      "inputs": [
        {
          "indexed": false,
          "internalType": "address",
          "name": "account",
          "type": "address"
        }
      ],
      "name": "Paused",
      "type": "event"
    },
    {
      "anonymous": false,
      "inputs": [
        {
          "indexed": true,
          "internalType": "address",
          "name": "from",
          "type": "address"
        },
        {
          "indexed": true,
          "internalType": "address",
          "name": "to",
          "type": "address"
        },
        {
          "indexed": true,
          "internalType": "uint256",
          "name": "tokenId",
          "type": "uint256"
        }
      ],
      "name": "Transfer",
      "type": "event"
    },
    {
      "anonymous": false,
      "inputs": [
        {
          "indexed": false,
          "internalType": "address",
          "name": "account",
          "type": "address"
        }
      ],
      "name": "Unpaused",
      "type": "event"
    },
    {
      "inputs": [
        {
          "internalType": "address",
          "name": "to",
          "type": "address"
        },
        {
          "internalType": "uint256",
          "name": "tokenId",
          "type": "uint256"
        }
      ],
      "name": "approve",
      "outputs": [],
      "stateMutability": "nonpayable",
      "type": "function"
    },
    {
      "inputs": [
        {
          "internalType": "address",
          "name": "owner",
          "type": "address"
        }
      ],
      "name": "balanceOf",
      "outputs": [
        {
          "internalType": "uint256",
          "name": "",
          "type": "uint256"
        }
      ],
      "stateMutability": "view",
      "type": "function"
    },
    {
      "inputs": [
        {
          "internalType": "uint256",
          "name": "_tokenId",
          "type": "uint256"
        }
      ],
      "name": "burn",
      "outputs": [],
      "stateMutability": "nonpayable",
      "type": "function"
    },
    {
      "inputs": [
        {
          "internalType": "uint256",
          "name": "_tokenId",
          "type": "uint256"
        }
      ],
      "name": "burnViaOwner",
      "outputs": [],
      "stateMutability": "nonpayable",
      "type": "function"
    },
    {
      "inputs": [
        {
          "internalType": "uint256",
          "name": "_maxSupply",
          "type": "uint256"
        }
      ],
      "name": "editMaxSupply",
      "outputs": [],
      "stateMutability": "nonpayable",
      "type": "function"
    },
    {
      "inputs": [
        {
          "internalType": "bool",
          "name": "_publicMintOpen",
          "type": "bool"
        }
      ],
      "name": "editMintWindows",
      "outputs": [],
      "stateMutability": "nonpayable",
      "type": "function"
    },
    {
      "inputs": [
        {
          "internalType": "uint256",
          "name": "tokenId",
          "type": "uint256"
        }
      ],
      "name": "getApproved",
      "outputs": [
        {
          "internalType": "address",
          "name": "",
          "type": "address"
        }
      ],
      "stateMutability": "view",
      "type": "function"
    },
    {
      "inputs": [
        {
          "internalType": "uint256",
          "name": "_tokenId",
          "type": "uint256"
        }
      ],
      "name": "getDriverLicenseInfoByTokenId",
      "outputs": [
        {
          "components": [
            {
              "internalType": "string",
              "name": "name",
              "type": "string"
            },
            {
              "internalType": "string",
              "name": "id",
              "type": "string"
            },
            {
              "internalType": "string",
              "name": "image",
              "type": "string"
            }
          ],
          "internalType": "struct Types.DrivingLicenseInfo",
          "name": "",
          "type": "tuple"
        }
      ],
      "stateMutability": "view",
      "type": "function"
    },
    {
      "inputs": [
        {
          "internalType": "address",
          "name": "owner",
          "type": "address"
        },
        {
          "internalType": "address",
          "name": "operator",
          "type": "address"
        }
      ],
      "name": "isApprovedForAll",
      "outputs": [
        {
          "internalType": "bool",
          "name": "",
          "type": "bool"
        }
      ],
      "stateMutability": "view",
      "type": "function"
    },
    {
      "inputs": [],
      "name": "name",
      "outputs": [
        {
          "internalType": "string",
          "name": "",
          "type": "string"
        }
      ],
      "stateMutability": "view",
      "type": "function"
    },
    {
      "inputs": [],
      "name": "owner",
      "outputs": [
        {
          "internalType": "address",
          "name": "",
          "type": "address"
        }
      ],
      "stateMutability": "view",
      "type": "function"
    },
    {
      "inputs": [
        {
          "internalType": "uint256",
          "name": "tokenId",
          "type": "uint256"
        }
      ],
      "name": "ownerOf",
      "outputs": [
        {
          "internalType": "address",
          "name": "",
          "type": "address"
        }
      ],
      "stateMutability": "view",
      "type": "function"
    },
    {
      "inputs": [],
      "name": "pause",
      "outputs": [],
      "stateMutability": "nonpayable",
      "type": "function"
    },
    {
      "inputs": [],
      "name": "paused",
      "outputs": [
        {
          "internalType": "bool",
          "name": "",
          "type": "bool"
        }
      ],
      "stateMutability": "view",
      "type": "function"
    },
    {
      "inputs": [
        {
          "internalType": "string",
          "name": "_driverName",
          "type": "string"
        },
        {
          "internalType": "string",
          "name": "_driverLicenseNumber",
          "type": "string"
        },
        {
          "internalType": "string",
          "name": "_ipfsHash",
          "type": "string"
        }
      ],
      "name": "publicMint",
      "outputs": [],
      "stateMutability": "payable",
      "type": "function"
    },
    {
      "inputs": [],
      "name": "renounceOwnership",
      "outputs": [],
      "stateMutability": "nonpayable",
      "type": "function"
    },
    {
      "inputs": [
        {
          "internalType": "address",
          "name": "from",
          "type": "address"
        },
        {
          "internalType": "address",
          "name": "to",
          "type": "address"
        },
        {
          "internalType": "uint256",
          "name": "tokenId",
          "type": "uint256"
        }
      ],
      "name": "safeTransferFrom",
      "outputs": [],
      "stateMutability": "nonpayable",
      "type": "function"
    },
    {
      "inputs": [
        {
          "internalType": "address",
          "name": "from",
          "type": "address"
        },
        {
          "internalType": "address",
          "name": "to",
          "type": "address"
        },
        {
          "internalType": "uint256",
          "name": "tokenId",
          "type": "uint256"
        },
        {
          "internalType": "bytes",
          "name": "data",
          "type": "bytes"
        }
      ],
      "name": "safeTransferFrom",
      "outputs": [],
      "stateMutability": "nonpayable",
      "type": "function"
    },
    {
      "inputs": [
        {
          "internalType": "address",
          "name": "operator",
          "type": "address"
        },
        {
          "internalType": "bool",
          "name": "approved",
          "type": "bool"
        }
      ],
      "name": "setApprovalForAll",
      "outputs": [],
      "stateMutability": "nonpayable",
      "type": "function"
    },
    {
      "inputs": [
        {
          "internalType": "bytes4",
          "name": "interfaceId",
          "type": "bytes4"
        }
      ],
      "name": "supportsInterface",
      "outputs": [
        {
          "internalType": "bool",
          "name": "",
          "type": "bool"
        }
      ],
      "stateMutability": "view",
      "type": "function"
    },
    {
      "inputs": [],
      "name": "symbol",
      "outputs": [
        {
          "internalType": "string",
          "name": "",
          "type": "string"
        }
      ],
      "stateMutability": "view",
      "type": "function"
    },
    {
      "inputs": [
        {
          "internalType": "uint256",
          "name": "index",
          "type": "uint256"
        }
      ],
      "name": "tokenByIndex",
      "outputs": [
        {
          "internalType": "uint256",
          "name": "",
          "type": "uint256"
        }
      ],
      "stateMutability": "view",
      "type": "function"
    },
    {
      "inputs": [
        {
          "internalType": "address",
          "name": "owner",
          "type": "address"
        },
        {
          "internalType": "uint256",
          "name": "index",
          "type": "uint256"
        }
      ],
      "name": "tokenOfOwnerByIndex",
      "outputs": [
        {
          "internalType": "uint256",
          "name": "",
          "type": "uint256"
        }
      ],
      "stateMutability": "view",
      "type": "function"
    },
    {
      "inputs": [
        {
          "internalType": "uint256",
          "name": "tokenId",
          "type": "uint256"
        }
      ],
      "name": "tokenURI",
      "outputs": [
        {
          "internalType": "string",
          "name": "",
          "type": "string"
        }
      ],
      "stateMutability": "view",
      "type": "function"
    },
    {
      "inputs": [],
      "name": "totalSupply",
      "outputs": [
        {
          "internalType": "uint256",
          "name": "",
          "type": "uint256"
        }
      ],
      "stateMutability": "view",
      "type": "function"
    },
    {
      "inputs": [
        {
          "internalType": "address",
          "name": "from",
          "type": "address"
        },
        {
          "internalType": "address",
          "name": "to",
          "type": "address"
        },
        {
          "internalType": "uint256",
          "name": "tokenId",
          "type": "uint256"
        }
      ],
      "name": "transferFrom",
      "outputs": [],
      "stateMutability": "nonpayable",
      "type": "function"
    },
    {
      "inputs": [
        {
          "internalType": "address",
          "name": "newOwner",
          "type": "address"
        }
      ],
      "name": "transferOwnership",
      "outputs": [],
      "stateMutability": "nonpayable",
      "type": "function"
    },
    {
      "inputs": [],
      "name": "unpause",
      "outputs": [],
      "stateMutability": "nonpayable",
      "type": "function"
    },
    {
      "inputs": [
        {
          "internalType": "address",
          "name": "_addr",
          "type": "address"
        }
      ],
      "name": "validateNFT",
      "outputs": [
        {
          "internalType": "bool",
          "name": "",
          "type": "bool"
        }
      ],
      "stateMutability": "view",
      "type": "function"
    }
  ],
  "bytecode": "0x6080604052600a805460ff60a81b1916600160a81b179055662386f26fc10000600c5560c8600d553480156200003457600080fd5b5060405162002a4d38038062002a4d833981016040819052620000579162000163565b806040518060400160405280600e81526020016d44726976696e674c6963656e736560901b81525060405180604001604052806002815260200161111360f21b8152508160009081620000ab91906200023c565b506001620000ba82826200023c565b5050600a805460ff19169055506001600160a01b038116620000f657604051631e4fbdf760e01b81526000600482015260240160405180910390fd5b620001018162000109565b505062000308565b600a80546001600160a01b03838116610100818102610100600160a81b031985161790945560405193909204169182907f8be0079c531659141344cd1fd0a4f28419497f9722a3daafe3b4186f6b6457e090600090a35050565b6000602082840312156200017657600080fd5b81516001600160a01b03811681146200018e57600080fd5b9392505050565b634e487b7160e01b600052604160045260246000fd5b600181811c90821680620001c057607f821691505b602082108103620001e157634e487b7160e01b600052602260045260246000fd5b50919050565b601f82111562000237576000816000526020600020601f850160051c81016020861015620002125750805b601f850160051c820191505b8181101562000233578281556001016200021e565b5050505b505050565b81516001600160401b0381111562000258576200025862000195565b6200027081620002698454620001ab565b84620001e7565b602080601f831160018114620002a857600084156200028f5750858301515b600019600386901b1c1916600185901b17855562000233565b600085815260208120601f198616915b82811015620002d957888601518255948401946001909101908401620002b8565b5085821015620002f85787850151600019600388901b60f8161c191681555b5050505050600190811b01905550565b61273580620003186000396000f3fe6080604052600436106101c25760003560e01c80635c975abb116100f75780638da5cb5b11610095578063c87b56dd11610064578063c87b56dd146104e6578063cea29b1614610506578063e985e9c514610526578063f2fde38b1461054657600080fd5b80638da5cb5b1461046e57806395d89b4114610491578063a22cb465146104a6578063b88d4fde146104c657600080fd5b806370a08231116100d157806370a0823114610404578063715018a6146104245780638456cb5914610439578063866009991461044e57600080fd5b80635c975abb146103ac5780635ec89279146103c45780636352211e146103e457600080fd5b80632f745c591161016457806342842e0e1161013e57806342842e0e1461033957806342966c68146103595780634e2dbeb8146103795780634f6ccce71461038c57600080fd5b80632f745c59146102d75780633dd121c9146102f75780633f4ba83a1461032457600080fd5b8063095ea7b3116101a0578063095ea7b3146102565780630e310d281461027857806318160ddd1461029857806323b872dd146102b757600080fd5b806301ffc9a7146101c757806306fdde03146101fc578063081812fc1461021e575b600080fd5b3480156101d357600080fd5b506101e76101e2366004611e42565b610566565b60405190151581526020015b60405180910390f35b34801561020857600080fd5b50610211610577565b6040516101f39190611eaf565b34801561022a57600080fd5b5061023e610239366004611ec2565b610609565b6040516001600160a01b0390911681526020016101f3565b34801561026257600080fd5b50610276610271366004611ef7565b610632565b005b34801561028457600080fd5b50610276610293366004611ec2565b610641565b3480156102a457600080fd5b506008545b6040519081526020016101f3565b3480156102c357600080fd5b506102766102d2366004611f21565b61064e565b3480156102e357600080fd5b506102a96102f2366004611ef7565b6106de565b34801561030357600080fd5b50610317610312366004611ec2565b610743565b6040516101f39190611f5d565b34801561033057600080fd5b50610276610a1d565b34801561034557600080fd5b50610276610354366004611f21565b610a2f565b34801561036557600080fd5b50610276610374366004611ec2565b610a4f565b61027661038736600461206a565b610a8d565b34801561039857600080fd5b506102a96103a7366004611ec2565b610b78565b3480156103b857600080fd5b50600a5460ff166101e7565b3480156103d057600080fd5b506102766103df366004611ec2565b610bd1565b3480156103f057600080fd5b5061023e6103ff366004611ec2565b610be2565b34801561041057600080fd5b506102a961041f3660046120f2565b610bed565b34801561043057600080fd5b50610276610c35565b34801561044557600080fd5b50610276610c47565b34801561045a57600080fd5b5061027661046936600461211d565b610c57565b34801561047a57600080fd5b50600a5461010090046001600160a01b031661023e565b34801561049d57600080fd5b50610211610c7d565b3480156104b257600080fd5b506102766104c1366004612138565b610c8c565b3480156104d257600080fd5b506102766104e136600461216b565b610c97565b3480156104f257600080fd5b50610211610501366004611ec2565b610cae565b34801561051257600080fd5b506101e76105213660046120f2565b610d16565b34801561053257600080fd5b506101e76105413660046121e7565b610e5b565b34801561055257600080fd5b506102766105613660046120f2565b610e89565b600061057182610ec7565b92915050565b60606000805461058690612211565b80601f01602080910402602001604051908101604052809291908181526020018280546105b290612211565b80156105ff5780601f106105d4576101008083540402835291602001916105ff565b820191906000526020600020905b8154815290600101906020018083116105e257829003601f168201915b5050505050905090565b600061061482610eec565b506000828152600460205260409020546001600160a01b0316610571565b61063d828233610f25565b5050565b610649610f32565b600d55565b6001600160a01b03821661067d57604051633250574960e11b8152600060048201526024015b60405180910390fd5b600061068a838333610f65565b9050836001600160a01b0316816001600160a01b0316146106d8576040516364283d7b60e01b81526001600160a01b0380861660048301526024820184905282166044820152606401610674565b50505050565b60006106e983610bed565b821061071a5760405163295f44f760e21b81526001600160a01b038416600482015260248101839052604401610674565b506001600160a01b03919091166000908152600660209081526040808320938352929052205490565b61076760405180606001604052806060815260200160608152602001606081525090565b3361077183610be2565b6001600160a01b0316146107d15781604051636fd8a8a360e11b8152600401610674918152604060208201819052601c908201527f596f7520617265206e6f7420746865206f776e6572206f66204e465400000000606082015260800190565b6000828152600e6020526040902060010180546107ed90612211565b90506000036108485781604051631add4fef60e11b8152600401610674918152604060208201819052601d908201527f447269766572204c6963656e736520696e666f206e6f7420666f756e64000000606082015260800190565b6000828152600e60205260409081902081516060810190925280548290829061087090612211565b80601f016020809104026020016040519081016040528092919081815260200182805461089c90612211565b80156108e95780601f106108be576101008083540402835291602001916108e9565b820191906000526020600020905b8154815290600101906020018083116108cc57829003601f168201915b5050505050815260200160018201805461090290612211565b80601f016020809104026020016040519081016040528092919081815260200182805461092e90612211565b801561097b5780601f106109505761010080835404028352916020019161097b565b820191906000526020600020905b81548152906001019060200180831161095e57829003601f168201915b5050505050815260200160028201805461099490612211565b80601f01602080910402602001604051908101604052809291908181526020018280546109c090612211565b8015610a0d5780601f106109e257610100808354040283529160200191610a0d565b820191906000526020600020905b8154815290600101906020018083116109f057829003601f168201915b5050505050815250509050919050565b610a25610f32565b610a2d610f7a565b565b610a4a83838360405180602001604052806000815250610c97565b505050565b610a5881610fcc565b6000818152600e6020526040812090610a718282611dde565b610a7f600183016000611dde565b610a4a600283016000611dde565b610a98838383610fd8565b600a54600160a81b900460ff16610ac85782828260405163261bc96960e01b81526004016106749392919061224b565b600c543414610af05782828260405163261bc96960e01b8152600401610674939291906122be565b6000610afb33611044565b90506000610b0884611136565b6040805160608101825287815260208082018490528183018790526000868152600e90915291909120815192935090918190610b449082612389565b5060208201516001820190610b599082612389565b5060408201516002820190610b6e9082612389565b5050505050505050565b6000610b8360085490565b8210610bac5760405163295f44f760e21b81526000600482015260248101839052604401610674565b60088281548110610bbf57610bbf612449565b90600052602060002001549050919050565b610bd9610f32565b610a5881611241565b600061057182610eec565b60006001600160a01b038216610c19576040516322718ad960e21b815260006004820152602401610674565b506001600160a01b031660009081526003602052604090205490565b610c3d610f32565b610a2d600061127c565b610c4f610f32565b610a2d6112d6565b610c5f610f32565b600a8054911515600160a81b0260ff60a81b19909216919091179055565b60606001805461058690612211565b61063d338383611313565b610ca284848461064e565b6106d8848484846113b2565b6060610cb982610eec565b506000610cc46114db565b90506000815111610ce45760405180602001604052806000815250610d0f565b80610cee846114fb565b604051602001610cff92919061245f565b6040516020818303038152906040525b9392505050565b600080610d2283610bed565b905060008167ffffffffffffffff811115610d3f57610d3f611fbe565b604051908082528060200260200182016040528015610d68578160200160208202803683370190505b50905060005b82811015610da557610d8085826106de565b828281518110610d9257610d92612449565b6020908102919091010152600101610d6e565b5060005b8151811015610e50576000600e6000848481518110610dca57610dca612449565b602002602001015181526020019081526020016000206000018054610dee90612211565b9050118015610e3857506000600e6000848481518110610e1057610e10612449565b602002602001015181526020019081526020016000206001018054610e3490612211565b9050115b15610e4857506001949350505050565b600101610da9565b506000949350505050565b6001600160a01b03918216600090815260056020908152604080832093909416825291909152205460ff1690565b610e91610f32565b6001600160a01b038116610ebb57604051631e4fbdf760e01b815260006004820152602401610674565b610ec48161127c565b50565b60006001600160e01b0319821663780e9d6360e01b148061057157506105718261158e565b6000818152600260205260408120546001600160a01b03168061057157604051637e27328960e01b815260048101849052602401610674565b610a4a83838360016115de565b600a546001600160a01b03610100909104163314610a2d5760405163118cdaa760e01b8152336004820152602401610674565b6000610f728484846116e4565b949350505050565b610f826116f9565b600a805460ff191690557f5db9ee0a495bf2e6ff9c91a7834c1ba4fdd244a5e8aa4e537bd38aeae4b073aa335b6040516001600160a01b03909116815260200160405180910390a1565b61063d60008233610f65565b8251600003610ffc5782604051633715ab5160e01b8152600401610674919061248e565b81516000036110205781604051633715ab5160e01b815260040161067491906124ff565b8051600003610a4a5781604051633715ab5160e01b81526004016106749190612581565b600061104f82610bed565b156110be57604051636f62b91d60e11b81523360048201526001600160a01b038316602482015260606044820152602360648201527f596f75206861766520616c7265616479206d696e7465642064726976696e672060848201526213919560ea1b60a482015260c401610674565b600d546008541061111557604051636f62b91d60e11b81523360048201526001600160a01b038316602482015260606044820152600b60648201526a15d9481cdbdb19081bdd5d60aa1b608482015260a401610674565b600b805460009182611126836125ca565b919050559050610571838261171c565b60606000611153836002855161114c91906125e3565b6002611736565b60408051602081019091526000808252919250905b6002855161117691906125e3565b811015611212576040805180820190915260018152600160fd1b602090910181905285518690839081106111ac576111ac612449565b01602001516001600160f81b031916036111e757816040516020016111d191906125f6565b604051602081830303815290604052915061120a565b816040516020016111f8919061261b565b60405160208183030381529060405291505b600101611168565b506000818360405160200161122892919061245f565b60408051601f1981840301815291905295945050505050565b60006112506000836000610f65565b90506001600160a01b03811661063d57604051637e27328960e01b815260048101839052602401610674565b600a80546001600160a01b03838116610100818102610100600160a81b031985161790945560405193909204169182907f8be0079c531659141344cd1fd0a4f28419497f9722a3daafe3b4186f6b6457e090600090a35050565b6112de611849565b600a805460ff191660011790557f62e78cea01bee320cd4e420270b5ea74000d11b0c9f74754ebdbfc544b05a258610faf3390565b6001600160a01b03821661134557604051630b61174360e31b81526001600160a01b0383166004820152602401610674565b6001600160a01b03838116600081815260056020908152604080832094871680845294825291829020805460ff191686151590811790915591519182527f17307eab39ab6107e8899845ad3d59bd9653f200f220920489ca2b5937696c31910160405180910390a3505050565b6001600160a01b0383163b156106d857604051630a85bd0160e11b81526001600160a01b0384169063150b7a02906113f4903390889087908790600401612640565b6020604051808303816000875af192505050801561142f575060408051601f3d908101601f1916820190925261142c9181019061267d565b60015b611498573d80801561145d576040519150601f19603f3d011682016040523d82523d6000602084013e611462565b606091505b50805160000361149057604051633250574960e11b81526001600160a01b0385166004820152602401610674565b805181602001fd5b6001600160e01b03198116630a85bd0160e11b146114d457604051633250574960e11b81526001600160a01b0385166004820152602401610674565b5050505050565b60606040518060600160405280603c81526020016126c4603c9139905090565b606060006115088361186d565b600101905060008167ffffffffffffffff81111561152857611528611fbe565b6040519080825280601f01601f191660200182016040528015611552576020820181803683370190505b5090508181016020015b600019016f181899199a1a9b1b9c1cb0b131b232b360811b600a86061a8153600a850494508461155c57509392505050565b60006001600160e01b031982166380ac58cd60e01b14806115bf57506001600160e01b03198216635b5e139f60e01b145b8061057157506301ffc9a760e01b6001600160e01b0319831614610571565b80806115f257506001600160a01b03821615155b156116b457600061160284610eec565b90506001600160a01b0383161580159061162e5750826001600160a01b0316816001600160a01b031614155b8015611641575061163f8184610e5b565b155b1561166a5760405163a9fbf51f60e01b81526001600160a01b0384166004820152602401610674565b81156116b25783856001600160a01b0316826001600160a01b03167f8c5be1e5ebec7d5bd14f71427d1e84f3dd0314c0f7b2291e5b200ac8c7c3b92560405160405180910390a45b505b5050600090815260046020526040902080546001600160a01b0319166001600160a01b0392909216919091179055565b60006116ee611849565b610f72848484611945565b600a5460ff16610a2d57604051638dfc202b60e01b815260040160405180910390fd5b61063d828260405180602001604052806000815250611a12565b82516060908490611747848661269a565b11156117955760405162461bcd60e51b815260206004820152601760248201527f496e76616c696420737562737472696e672072616e67650000000000000000006044820152606401610674565b60008367ffffffffffffffff8111156117b0576117b0611fbe565b6040519080825280601f01601f1916602001820160405280156117da576020820181803683370190505b50905060005b8481101561183f57826117f3828861269a565b8151811061180357611803612449565b602001015160f81c60f81b82828151811061182057611820612449565b60200101906001600160f81b031916908160001a9053506001016117e0565b5095945050505050565b600a5460ff1615610a2d5760405163d93c066560e01b815260040160405180910390fd5b60008072184f03e93ff9f4daa797ed6e38ed64bf6a1f0160401b83106118ac5772184f03e93ff9f4daa797ed6e38ed64bf6a1f0160401b830492506040015b6d04ee2d6d415b85acef810000000083106118d8576d04ee2d6d415b85acef8100000000830492506020015b662386f26fc1000083106118f657662386f26fc10000830492506010015b6305f5e100831061190e576305f5e100830492506008015b612710831061192257612710830492506004015b60648310611934576064830492506002015b600a83106105715760010192915050565b600080611953858585611a29565b90506001600160a01b0381166119b0576119ab84600880546000838152600960205260408120829055600182018355919091527ff3f7a9fe364faab93b216da50a3214154f22a0a2b415b23a84c8169e8b636ee30155565b6119d3565b846001600160a01b0316816001600160a01b0316146119d3576119d38185611b22565b6001600160a01b0385166119ef576119ea84611bb3565b610f72565b846001600160a01b0316816001600160a01b031614610f7257610f728585611c62565b611a1c8383611cb2565b610a4a60008484846113b2565b6000828152600260205260408120546001600160a01b0390811690831615611a5657611a56818486611d17565b6001600160a01b03811615611a9457611a736000856000806115de565b6001600160a01b038116600090815260036020526040902080546000190190555b6001600160a01b03851615611ac3576001600160a01b0385166000908152600360205260409020805460010190555b60008481526002602052604080822080546001600160a01b0319166001600160a01b0389811691821790925591518793918516917fddf252ad1be2c89b69c2b068fc378daa952ba7f163c4a11628f55a4df523b3ef91a4949350505050565b6000611b2d83610bed565b600083815260076020526040902054909150808214611b80576001600160a01b03841660009081526006602090815260408083208584528252808320548484528184208190558352600790915290208190555b5060009182526007602090815260408084208490556001600160a01b039094168352600681528383209183525290812055565b600854600090611bc5906001906125e3565b60008381526009602052604081205460088054939450909284908110611bed57611bed612449565b906000526020600020015490508060088381548110611c0e57611c0e612449565b6000918252602080832090910192909255828152600990915260408082208490558582528120556008805480611c4657611c466126ad565b6001900381819060005260206000200160009055905550505050565b60006001611c6f84610bed565b611c7991906125e3565b6001600160a01b039093166000908152600660209081526040808320868452825280832085905593825260079052919091209190915550565b6001600160a01b038216611cdc57604051633250574960e11b815260006004820152602401610674565b6000611cea83836000610f65565b90506001600160a01b03811615610a4a576040516339e3563760e11b815260006004820152602401610674565b611d22838383611d7b565b610a4a576001600160a01b038316611d5057604051637e27328960e01b815260048101829052602401610674565b60405163177e802f60e01b81526001600160a01b038316600482015260248101829052604401610674565b60006001600160a01b03831615801590610f725750826001600160a01b0316846001600160a01b03161480611db55750611db58484610e5b565b80610f725750506000908152600460205260409020546001600160a01b03908116911614919050565b508054611dea90612211565b6000825580601f10611dfa575050565b601f016020900490600052602060002090810190610ec491905b80821115611e285760008155600101611e14565b5090565b6001600160e01b031981168114610ec457600080fd5b600060208284031215611e5457600080fd5b8135610d0f81611e2c565b60005b83811015611e7a578181015183820152602001611e62565b50506000910152565b60008151808452611e9b816020860160208601611e5f565b601f01601f19169290920160200192915050565b602081526000610d0f6020830184611e83565b600060208284031215611ed457600080fd5b5035919050565b80356001600160a01b0381168114611ef257600080fd5b919050565b60008060408385031215611f0a57600080fd5b611f1383611edb565b946020939093013593505050565b600080600060608486031215611f3657600080fd5b611f3f84611edb565b9250611f4d60208501611edb565b9150604084013590509250925092565b602081526000825160606020840152611f796080840182611e83565b90506020840151601f1980858403016040860152611f978383611e83565b9250604086015191508085840301606086015250611fb58282611e83565b95945050505050565b634e487b7160e01b600052604160045260246000fd5b600067ffffffffffffffff80841115611fef57611fef611fbe565b604051601f8501601f19908116603f0116810190828211818310171561201757612017611fbe565b8160405280935085815286868601111561203057600080fd5b858560208301376000602087830101525050509392505050565b600082601f83011261205b57600080fd5b610d0f83833560208501611fd4565b60008060006060848603121561207f57600080fd5b833567ffffffffffffffff8082111561209757600080fd5b6120a38783880161204a565b945060208601359150808211156120b957600080fd5b6120c58783880161204a565b935060408601359150808211156120db57600080fd5b506120e88682870161204a565b9150509250925092565b60006020828403121561210457600080fd5b610d0f82611edb565b80358015158114611ef257600080fd5b60006020828403121561212f57600080fd5b610d0f8261210d565b6000806040838503121561214b57600080fd5b61215483611edb565b91506121626020840161210d565b90509250929050565b6000806000806080858703121561218157600080fd5b61218a85611edb565b935061219860208601611edb565b925060408501359150606085013567ffffffffffffffff8111156121bb57600080fd5b8501601f810187136121cc57600080fd5b6121db87823560208401611fd4565b91505092959194509250565b600080604083850312156121fa57600080fd5b61220383611edb565b915061216260208401611edb565b600181811c9082168061222557607f821691505b60208210810361224557634e487b7160e01b600052602260045260246000fd5b50919050565b60808152600061225e6080830186611e83565b82810360208401526122708186611e83565b905082810360408401526122848185611e83565b83810360609094019390935250506015815274141d589b1a58c81b5a5b9d081a5cc818db1bdcd959605a1b60208201526040019392505050565b6080815260006122d16080830186611e83565b82810360208401526122e38186611e83565b905082810360408401526122f78185611e83565b8381036060909401939093525050601981527f4e6f7420656e6f7567682066756e64732070726f76696465640000000000000060208201526040019392505050565b601f821115610a4a576000816000526020600020601f850160051c810160208610156123625750805b601f850160051c820191505b818110156123815782815560010161236e565b505050505050565b815167ffffffffffffffff8111156123a3576123a3611fbe565b6123b7816123b18454612211565b84612339565b602080601f8311600181146123ec57600084156123d45750858301515b600019600386901b1c1916600185901b178555612381565b600085815260208120601f198616915b8281101561241b578886015182559484019460019091019084016123fc565b50858210156124395787850151600019600388901b60f8161c191681555b5050505050600190811b01905550565b634e487b7160e01b600052603260045260246000fd5b60008351612471818460208801611e5f565b835190830190612485818360208801611e5f565b01949350505050565b60608152600a6060820152694472697665724e616d6560b01b608082015260a0602082015260006124c260a0830184611e83565b828103604093840152601b81527f447269766572206e616d652063616e6e6f7420626520656d707479000000000060208201529190910192915050565b60608152600e60608201526d447269766572204c6963656e736560901b608082015260a06020820152600061253760a0830184611e83565b8281036040840152610f7281602581527f447269766572206c6963656e7365206e756d6265722063616e6e6f7420626520602082015264656d70747960d81b604082015260600190565b606081526009606082015268092e0cce640d0c2e6d60bb1b608082015260a06020820152600061253760a0830184611e83565b634e487b7160e01b600052601160045260246000fd5b6000600182016125dc576125dc6125b4565b5060010190565b81810381811115610571576105716125b4565b60008251612608818460208701611e5f565b600160fd1b920191825250600101919050565b6000825161262d818460208701611e5f565b601560f91b920191825250600101919050565b6001600160a01b038581168252841660208201526040810183905260806060820181905260009061267390830184611e83565b9695505050505050565b60006020828403121561268f57600080fd5b8151610d0f81611e2c565b80820180821115610571576105716125b4565b634e487b7160e01b600052603160045260246000fdfe68747470733a2f2f617175616d6172696e652d63617375616c2d746172616e74756c612d3137372e6d7970696e6174612e636c6f75642f697066732fa264697066735822122087986739a95fe2bc48c7f3c8973dbfca5c647c62f2dabff5295d94f356301e2d64736f6c63430008180033",
  "linkReferences": {},
  "deployedLinkReferences": {}
}