{
  "_format": "hh-sol-artifact-1",
  "contractName": "ServiceRequest",
  "sourceName": "contracts/ServiceRequest.sol",
  "abi": [
    {
      "inputs": [
        {
          "internalType": "address",
          "name": "initialOwner",
          "type": "address"
        },
        {
          "internalType": "address",
          "name": "_geekTokenAddr",
          "type": "address"
        },
        {
          "internalType": "address",
          "name": "_disputedServiceRequestAddr",
          "type": "address"
        },
        {
          "internalType": "address",
          "name": "_userRoleRequestAddr",
          "type": "address"
        }
      ],
      "stateMutability": "nonpayable",
      "type": "constructor"
    },
    {
      "inputs": [
        {
          "internalType": "address",
          "name": "bidder",
          "type": "address"
        },
        {
          "internalType": "string",
          "name": "message",
          "type": "string"
        }
      ],
      "name": "AlreadyBidded",
      "type": "error"
    },
    {
      "inputs": [
        {
          "internalType": "uint256",
          "name": "srId",
          "type": "uint256"
        },
        {
          "internalType": "string",
          "name": "message",
          "type": "string"
        }
      ],
      "name": "AuctionEnded",
      "type": "error"
    },
    {
      "inputs": [
        {
          "internalType": "uint256",
          "name": "srId",
          "type": "uint256"
        },
        {
          "internalType": "string",
          "name": "message",
          "type": "string"
        }
      ],
      "name": "AuctionInProgress",
      "type": "error"
    },
    {
      "inputs": [
        {
          "internalType": "uint256",
          "name": "srId",
          "type": "uint256"
        },
        {
          "internalType": "string",
          "name": "message",
          "type": "string"
        }
      ],
      "name": "AuctionNotStarted",
      "type": "error"
    },
    {
      "inputs": [
        {
          "internalType": "uint256",
          "name": "timestamp",
          "type": "uint256"
        },
        {
          "internalType": "string",
          "name": "message",
          "type": "string"
        }
      ],
      "name": "InvalidAuctionTime",
      "type": "error"
    },
    {
      "inputs": [
        {
          "internalType": "string",
          "name": "geoHash",
          "type": "string"
        },
        {
          "internalType": "string",
          "name": "message",
          "type": "string"
        }
      ],
      "name": "InvalidGeoHash",
      "type": "error"
    },
    {
      "inputs": [
        {
          "internalType": "uint256",
          "name": "value",
          "type": "uint256"
        },
        {
          "internalType": "string",
          "name": "message",
          "type": "string"
        }
      ],
      "name": "InvalidProductValue",
      "type": "error"
    },
    {
      "inputs": [
        {
          "internalType": "enum Types.Status",
          "name": "status",
          "type": "uint8"
        },
        {
          "internalType": "string",
          "name": "message",
          "type": "string"
        }
      ],
      "name": "InvalidSRStatus",
      "type": "error"
    },
    {
      "inputs": [
        {
          "internalType": "string",
          "name": "value",
          "type": "string"
        },
        {
          "internalType": "string",
          "name": "message",
          "type": "string"
        }
      ],
      "name": "InvalidValue",
      "type": "error"
    },
    {
      "inputs": [
        {
          "internalType": "uint256",
          "name": "srId",
          "type": "uint256"
        },
        {
          "internalType": "string",
          "name": "message",
          "type": "string"
        }
      ],
      "name": "SRAccessDenied",
      "type": "error"
    },
    {
      "inputs": [
        {
          "internalType": "uint256",
          "name": "srId",
          "type": "uint256"
        },
        {
          "internalType": "string",
          "name": "message",
          "type": "string"
        }
      ],
      "name": "SRCannotBeCancelled",
      "type": "error"
    },
    {
      "inputs": [
        {
          "internalType": "uint256",
          "name": "srId",
          "type": "uint256"
        },
        {
          "internalType": "string",
          "name": "message",
          "type": "string"
        }
      ],
      "name": "SRCannotBeUpdated",
      "type": "error"
    },
    {
      "inputs": [
        {
          "internalType": "uint256",
          "name": "srId",
          "type": "uint256"
        },
        {
          "internalType": "string",
          "name": "message",
          "type": "string"
        }
      ],
      "name": "SRDisputeAlreadyResolved",
      "type": "error"
    },
    {
      "inputs": [
        {
          "internalType": "uint256",
          "name": "srId",
          "type": "uint256"
        },
        {
          "internalType": "string",
          "name": "message",
          "type": "string"
        }
      ],
      "name": "SROutOfRegion",
      "type": "error"
    },
    {
      "anonymous": false,
      "inputs": [
        {
          "indexed": false,
          "internalType": "uint256",
          "name": "srId",
          "type": "uint256"
        },
        {
          "indexed": false,
          "internalType": "address",
          "name": "wonBy",
          "type": "address"
        },
        {
          "indexed": false,
          "internalType": "string",
          "name": "message",
          "type": "string"
        }
      ],
      "name": "AuctionResults",
      "type": "event"
    },
    {
      "anonymous": false,
      "inputs": [
        {
          "indexed": false,
          "internalType": "uint256",
          "name": "srId",
          "type": "uint256"
        },
        {
          "indexed": false,
          "internalType": "string",
          "name": "message",
          "type": "string"
        }
      ],
      "name": "DisputedSRResult",
      "type": "event"
    },
    {
      "anonymous": false,
      "inputs": [
        {
          "indexed": false,
          "internalType": "uint256",
          "name": "srId",
          "type": "uint256"
        },
        {
          "indexed": false,
          "internalType": "address",
          "name": "by",
          "type": "address"
        },
        {
          "indexed": false,
          "internalType": "uint256",
          "name": "serviceFee",
          "type": "uint256"
        }
      ],
      "name": "NewBidEntry",
      "type": "event"
    },
    {
      "anonymous": false,
      "inputs": [
        {
          "components": [
            {
              "internalType": "uint256",
              "name": "requestId",
              "type": "uint256"
            },
            {
              "internalType": "string",
              "name": "description",
              "type": "string"
            },
            {
              "internalType": "address",
              "name": "shipperUID",
              "type": "address"
            },
            {
              "internalType": "address",
              "name": "receiverUID",
              "type": "address"
            },
            {
              "internalType": "string",
              "name": "originGeoHash",
              "type": "string"
            },
            {
              "internalType": "string",
              "name": "destGeoHash",
              "type": "string"
            },
            {
              "internalType": "uint256",
              "name": "cargoInsurableValue",
              "type": "uint256"
            },
            {
              "internalType": "uint256",
              "name": "serviceFee",
              "type": "uint256"
            },
            {
              "internalType": "uint256",
              "name": "requestedPickupTime",
              "type": "uint256"
            },
            {
              "internalType": "uint256",
              "name": "requestedDeliveryTime",
              "type": "uint256"
            },
            {
              "internalType": "uint256",
              "name": "auctionEndTime",
              "type": "uint256"
            },
            {
              "internalType": "address",
              "name": "driverUID",
              "type": "address"
            },
            {
              "internalType": "enum Types.Status",
              "name": "status",
              "type": "uint8"
            },
            {
              "internalType": "string",
              "name": "disputeWinner",
              "type": "string"
            },
            {
              "components": [
                {
                  "internalType": "address",
                  "name": "uid",
                  "type": "address"
                },
                {
                  "internalType": "uint256",
                  "name": "serviceFee",
                  "type": "uint256"
                }
              ],
              "internalType": "struct Types.BidInfo",
              "name": "bidInfo",
              "type": "tuple"
            },
            {
              "internalType": "bool",
              "name": "disputeVoteGiven",
              "type": "bool"
            }
          ],
          "indexed": false,
          "internalType": "struct Types.SRInfo",
          "name": "srInfo",
          "type": "tuple"
        },
        {
          "indexed": false,
          "internalType": "address",
          "name": "by",
          "type": "address"
        },
        {
          "indexed": false,
          "internalType": "string",
          "name": "message",
          "type": "string"
        }
      ],
      "name": "NewSRAdded",
      "type": "event"
    },
    {
      "anonymous": false,
      "inputs": [
        {
          "indexed": false,
          "internalType": "uint256",
          "name": "srId",
          "type": "uint256"
        },
        {
          "indexed": false,
          "internalType": "address",
          "name": "by",
          "type": "address"
        },
        {
          "indexed": false,
          "internalType": "string",
          "name": "message",
          "type": "string"
        }
      ],
      "name": "SRCancelled",
      "type": "event"
    },
    {
      "anonymous": false,
      "inputs": [
        {
          "components": [
            {
              "internalType": "uint256",
              "name": "requestId",
              "type": "uint256"
            },
            {
              "internalType": "string",
              "name": "description",
              "type": "string"
            },
            {
              "internalType": "address",
              "name": "shipperUID",
              "type": "address"
            },
            {
              "internalType": "address",
              "name": "receiverUID",
              "type": "address"
            },
            {
              "internalType": "string",
              "name": "originGeoHash",
              "type": "string"
            },
            {
              "internalType": "string",
              "name": "destGeoHash",
              "type": "string"
            },
            {
              "internalType": "uint256",
              "name": "cargoInsurableValue",
              "type": "uint256"
            },
            {
              "internalType": "uint256",
              "name": "serviceFee",
              "type": "uint256"
            },
            {
              "internalType": "uint256",
              "name": "requestedPickupTime",
              "type": "uint256"
            },
            {
              "internalType": "uint256",
              "name": "requestedDeliveryTime",
              "type": "uint256"
            },
            {
              "internalType": "uint256",
              "name": "auctionEndTime",
              "type": "uint256"
            },
            {
              "internalType": "address",
              "name": "driverUID",
              "type": "address"
            },
            {
              "internalType": "enum Types.Status",
              "name": "status",
              "type": "uint8"
            },
            {
              "internalType": "string",
              "name": "disputeWinner",
              "type": "string"
            },
            {
              "components": [
                {
                  "internalType": "address",
                  "name": "uid",
                  "type": "address"
                },
                {
                  "internalType": "uint256",
                  "name": "serviceFee",
                  "type": "uint256"
                }
              ],
              "internalType": "struct Types.BidInfo",
              "name": "bidInfo",
              "type": "tuple"
            },
            {
              "internalType": "bool",
              "name": "disputeVoteGiven",
              "type": "bool"
            }
          ],
          "indexed": false,
          "internalType": "struct Types.SRInfo",
          "name": "srInfo",
          "type": "tuple"
        },
        {
          "indexed": false,
          "internalType": "string",
          "name": "message",
          "type": "string"
        }
      ],
      "name": "SRStatusUpdated",
      "type": "event"
    },
    {
      "anonymous": false,
      "inputs": [
        {
          "components": [
            {
              "internalType": "uint256",
              "name": "requestId",
              "type": "uint256"
            },
            {
              "internalType": "string",
              "name": "description",
              "type": "string"
            },
            {
              "internalType": "address",
              "name": "shipperUID",
              "type": "address"
            },
            {
              "internalType": "address",
              "name": "receiverUID",
              "type": "address"
            },
            {
              "internalType": "string",
              "name": "originGeoHash",
              "type": "string"
            },
            {
              "internalType": "string",
              "name": "destGeoHash",
              "type": "string"
            },
            {
              "internalType": "uint256",
              "name": "cargoInsurableValue",
              "type": "uint256"
            },
            {
              "internalType": "uint256",
              "name": "serviceFee",
              "type": "uint256"
            },
            {
              "internalType": "uint256",
              "name": "requestedPickupTime",
              "type": "uint256"
            },
            {
              "internalType": "uint256",
              "name": "requestedDeliveryTime",
              "type": "uint256"
            },
            {
              "internalType": "uint256",
              "name": "auctionEndTime",
              "type": "uint256"
            },
            {
              "internalType": "address",
              "name": "driverUID",
              "type": "address"
            },
            {
              "internalType": "enum Types.Status",
              "name": "status",
              "type": "uint8"
            },
            {
              "internalType": "string",
              "name": "disputeWinner",
              "type": "string"
            },
            {
              "components": [
                {
                  "internalType": "address",
                  "name": "uid",
                  "type": "address"
                },
                {
                  "internalType": "uint256",
                  "name": "serviceFee",
                  "type": "uint256"
                }
              ],
              "internalType": "struct Types.BidInfo",
              "name": "bidInfo",
              "type": "tuple"
            },
            {
              "internalType": "bool",
              "name": "disputeVoteGiven",
              "type": "bool"
            }
          ],
          "indexed": false,
          "internalType": "struct Types.SRInfo",
          "name": "srInfo",
          "type": "tuple"
        },
        {
          "indexed": false,
          "internalType": "address",
          "name": "by",
          "type": "address"
        },
        {
          "indexed": false,
          "internalType": "string",
          "name": "message",
          "type": "string"
        }
      ],
      "name": "SRUpdated",
      "type": "event"
    },
    {
      "inputs": [
        {
          "internalType": "uint256",
          "name": "_requestId",
          "type": "uint256"
        }
      ],
      "name": "cancelSR",
      "outputs": [],
      "stateMutability": "nonpayable",
      "type": "function"
    },
    {
      "inputs": [
        {
          "components": [
            {
              "internalType": "uint256",
              "name": "requestId",
              "type": "uint256"
            },
            {
              "internalType": "string",
              "name": "description",
              "type": "string"
            },
            {
              "internalType": "address",
              "name": "shipperUID",
              "type": "address"
            },
            {
              "internalType": "address",
              "name": "receiverUID",
              "type": "address"
            },
            {
              "internalType": "string",
              "name": "originGeoHash",
              "type": "string"
            },
            {
              "internalType": "string",
              "name": "destGeoHash",
              "type": "string"
            },
            {
              "internalType": "uint256",
              "name": "cargoInsurableValue",
              "type": "uint256"
            },
            {
              "internalType": "uint256",
              "name": "serviceFee",
              "type": "uint256"
            },
            {
              "internalType": "uint256",
              "name": "requestedPickupTime",
              "type": "uint256"
            },
            {
              "internalType": "uint256",
              "name": "requestedDeliveryTime",
              "type": "uint256"
            },
            {
              "internalType": "uint256",
              "name": "auctionEndTime",
              "type": "uint256"
            },
            {
              "internalType": "address",
              "name": "driverUID",
              "type": "address"
            },
            {
              "internalType": "enum Types.Status",
              "name": "status",
              "type": "uint8"
            },
            {
              "internalType": "string",
              "name": "disputeWinner",
              "type": "string"
            },
            {
              "components": [
                {
                  "internalType": "address",
                  "name": "uid",
                  "type": "address"
                },
                {
                  "internalType": "uint256",
                  "name": "serviceFee",
                  "type": "uint256"
                }
              ],
              "internalType": "struct Types.BidInfo",
              "name": "bidInfo",
              "type": "tuple"
            },
            {
              "internalType": "bool",
              "name": "disputeVoteGiven",
              "type": "bool"
            }
          ],
          "internalType": "struct Types.SRInfo",
          "name": "_srInfo",
          "type": "tuple"
        },
        {
          "internalType": "string",
          "name": "_receiverPhoneNoWithISO",
          "type": "string"
        }
      ],
      "name": "createNewSR",
      "outputs": [],
      "stateMutability": "payable",
      "type": "function"
    },
    {
      "inputs": [
        {
          "internalType": "uint256",
          "name": "_requestId",
          "type": "uint256"
        }
      ],
      "name": "decideWinnerForDispute",
      "outputs": [],
      "stateMutability": "nonpayable",
      "type": "function"
    },
    {
      "inputs": [
        {
          "internalType": "uint256",
          "name": "_requestId",
          "type": "uint256"
        }
      ],
      "name": "declareWinner",
      "outputs": [],
      "stateMutability": "nonpayable",
      "type": "function"
    },
    {
      "inputs": [
        {
          "internalType": "uint256",
          "name": "_requestId",
          "type": "uint256"
        },
        {
          "internalType": "uint256",
          "name": "_serviceFee",
          "type": "uint256"
        }
      ],
      "name": "dutchBid",
      "outputs": [],
      "stateMutability": "payable",
      "type": "function"
    },
    {
      "inputs": [
        {
          "internalType": "uint256",
          "name": "_requestId",
          "type": "uint256"
        },
        {
          "internalType": "enum Types.Status",
          "name": "_newStatus",
          "type": "uint8"
        },
        {
          "internalType": "uint256",
          "name": "_requestedPickupTime",
          "type": "uint256"
        },
        {
          "internalType": "uint256",
          "name": "_requestedDeliveryTime",
          "type": "uint256"
        },
        {
          "internalType": "uint256",
          "name": "_auctionEndTime",
          "type": "uint256"
        }
      ],
      "name": "editDraftSR",
      "outputs": [],
      "stateMutability": "nonpayable",
      "type": "function"
    },
    {
      "inputs": [],
      "name": "getAllSRs",
      "outputs": [
        {
          "components": [
            {
              "internalType": "uint256",
              "name": "requestId",
              "type": "uint256"
            },
            {
              "internalType": "string",
              "name": "description",
              "type": "string"
            },
            {
              "internalType": "address",
              "name": "shipperUID",
              "type": "address"
            },
            {
              "internalType": "address",
              "name": "receiverUID",
              "type": "address"
            },
            {
              "internalType": "string",
              "name": "originGeoHash",
              "type": "string"
            },
            {
              "internalType": "string",
              "name": "destGeoHash",
              "type": "string"
            },
            {
              "internalType": "uint256",
              "name": "cargoInsurableValue",
              "type": "uint256"
            },
            {
              "internalType": "uint256",
              "name": "serviceFee",
              "type": "uint256"
            },
            {
              "internalType": "uint256",
              "name": "requestedPickupTime",
              "type": "uint256"
            },
            {
              "internalType": "uint256",
              "name": "requestedDeliveryTime",
              "type": "uint256"
            },
            {
              "internalType": "uint256",
              "name": "auctionEndTime",
              "type": "uint256"
            },
            {
              "internalType": "address",
              "name": "driverUID",
              "type": "address"
            },
            {
              "internalType": "enum Types.Status",
              "name": "status",
              "type": "uint8"
            },
            {
              "internalType": "string",
              "name": "disputeWinner",
              "type": "string"
            },
            {
              "components": [
                {
                  "internalType": "address",
                  "name": "uid",
                  "type": "address"
                },
                {
                  "internalType": "uint256",
                  "name": "serviceFee",
                  "type": "uint256"
                }
              ],
              "internalType": "struct Types.BidInfo",
              "name": "bidInfo",
              "type": "tuple"
            },
            {
              "internalType": "bool",
              "name": "disputeVoteGiven",
              "type": "bool"
            }
          ],
          "internalType": "struct Types.SRInfo[]",
          "name": "",
          "type": "tuple[]"
        }
      ],
      "stateMutability": "view",
      "type": "function"
    },
    {
      "inputs": [],
      "name": "getAuctionSRListinDriverRegion",
      "outputs": [
        {
          "components": [
            {
              "internalType": "uint256",
              "name": "requestId",
              "type": "uint256"
            },
            {
              "internalType": "string",
              "name": "description",
              "type": "string"
            },
            {
              "internalType": "address",
              "name": "shipperUID",
              "type": "address"
            },
            {
              "internalType": "address",
              "name": "receiverUID",
              "type": "address"
            },
            {
              "internalType": "string",
              "name": "originGeoHash",
              "type": "string"
            },
            {
              "internalType": "string",
              "name": "destGeoHash",
              "type": "string"
            },
            {
              "internalType": "uint256",
              "name": "cargoInsurableValue",
              "type": "uint256"
            },
            {
              "internalType": "uint256",
              "name": "serviceFee",
              "type": "uint256"
            },
            {
              "internalType": "uint256",
              "name": "requestedPickupTime",
              "type": "uint256"
            },
            {
              "internalType": "uint256",
              "name": "requestedDeliveryTime",
              "type": "uint256"
            },
            {
              "internalType": "uint256",
              "name": "auctionEndTime",
              "type": "uint256"
            },
            {
              "internalType": "address",
              "name": "driverUID",
              "type": "address"
            },
            {
              "internalType": "enum Types.Status",
              "name": "status",
              "type": "uint8"
            },
            {
              "internalType": "string",
              "name": "disputeWinner",
              "type": "string"
            },
            {
              "components": [
                {
                  "internalType": "address",
                  "name": "uid",
                  "type": "address"
                },
                {
                  "internalType": "uint256",
                  "name": "serviceFee",
                  "type": "uint256"
                }
              ],
              "internalType": "struct Types.BidInfo",
              "name": "bidInfo",
              "type": "tuple"
            },
            {
              "internalType": "bool",
              "name": "disputeVoteGiven",
              "type": "bool"
            }
          ],
          "internalType": "struct Types.SRInfo[]",
          "name": "",
          "type": "tuple[]"
        }
      ],
      "stateMutability": "view",
      "type": "function"
    },
    {
      "inputs": [],
      "name": "getMySRs",
      "outputs": [
        {
          "components": [
            {
              "internalType": "uint256",
              "name": "requestId",
              "type": "uint256"
            },
            {
              "internalType": "string",
              "name": "description",
              "type": "string"
            },
            {
              "internalType": "address",
              "name": "shipperUID",
              "type": "address"
            },
            {
              "internalType": "address",
              "name": "receiverUID",
              "type": "address"
            },
            {
              "internalType": "string",
              "name": "originGeoHash",
              "type": "string"
            },
            {
              "internalType": "string",
              "name": "destGeoHash",
              "type": "string"
            },
            {
              "internalType": "uint256",
              "name": "cargoInsurableValue",
              "type": "uint256"
            },
            {
              "internalType": "uint256",
              "name": "serviceFee",
              "type": "uint256"
            },
            {
              "internalType": "uint256",
              "name": "requestedPickupTime",
              "type": "uint256"
            },
            {
              "internalType": "uint256",
              "name": "requestedDeliveryTime",
              "type": "uint256"
            },
            {
              "internalType": "uint256",
              "name": "auctionEndTime",
              "type": "uint256"
            },
            {
              "internalType": "address",
              "name": "driverUID",
              "type": "address"
            },
            {
              "internalType": "enum Types.Status",
              "name": "status",
              "type": "uint8"
            },
            {
              "internalType": "string",
              "name": "disputeWinner",
              "type": "string"
            },
            {
              "components": [
                {
                  "internalType": "address",
                  "name": "uid",
                  "type": "address"
                },
                {
                  "internalType": "uint256",
                  "name": "serviceFee",
                  "type": "uint256"
                }
              ],
              "internalType": "struct Types.BidInfo",
              "name": "bidInfo",
              "type": "tuple"
            },
            {
              "internalType": "bool",
              "name": "disputeVoteGiven",
              "type": "bool"
            }
          ],
          "internalType": "struct Types.SRInfo[]",
          "name": "",
          "type": "tuple[]"
        }
      ],
      "stateMutability": "view",
      "type": "function"
    },
    {
      "inputs": [
        {
          "internalType": "uint256",
          "name": "_requestId",
          "type": "uint256"
        },
        {
          "internalType": "enum Types.Status",
          "name": "_newStatus",
          "type": "uint8"
        }
      ],
      "name": "updateSRStatus",
      "outputs": [],
      "stateMutability": "nonpayable",
      "type": "function"
    }
  ],
  "bytecode": "0x6101006040523480156200001257600080fd5b5060405162005f9038038062005f90833981016040819052620000359162000075565b6001600160a01b0393841660e052918316608052821660a0521660c052620000d2565b80516001600160a01b03811681146200007057600080fd5b919050565b600080600080608085870312156200008c57600080fd5b620000978562000058565b9350620000a76020860162000058565b9250620000b76040860162000058565b9150620000c76060860162000058565b905092959194509250565b60805160a05160c05160e051615e5a620001366000396000610f0201526000818161182601528181611cef01528181611d600152818161243301526128eb015260008181610e4a0152613666015260008181610dae015261387d0152615e5a6000f3fe6080604052600436106100905760003560e01c80635604c2e9116100595780635604c2e91461012a5780638a333f921461013f5780639222d26514610152578063a83fb61214610172578063fb740de31461019257600080fd5b8062c2943c146100955780630db75ef0146100b757806349211e08146100d757806352639f861461010257806354e3d22014610117575b600080fd5b3480156100a157600080fd5b506100b56100b0366004614e9d565b6101b2565b005b3480156100c357600080fd5b506100b56100d2366004614ed3565b61084a565b3480156100e357600080fd5b506100ec610ef5565b6040516100f991906150de565b60405180910390f35b34801561010e57600080fd5b506100ec6112fa565b6100b56101253660046152c8565b6117f7565b34801561013657600080fd5b506100ec611ccd565b6100b561014d366004615474565b61241b565b34801561015e57600080fd5b506100b561016d366004615496565b612cf1565b34801561017e57600080fd5b506100b561018d366004614e9d565b613285565b34801561019e57600080fd5b506100b56101ad366004614e9d565b613a79565b60008082815481106101c6576101c66154de565b906000526020600020906010020160405180610200016040529081600082015481526020016001820180546101fa906154f4565b80601f0160208091040260200160405190810160405280929190818152602001828054610226906154f4565b80156102735780601f1061024857610100808354040283529160200191610273565b820191906000526020600020905b81548152906001019060200180831161025657829003601f168201915b505050918352505060028201546001600160a01b03908116602083015260038301541660408201526004820180546060909201916102b0906154f4565b80601f01602080910402602001604051908101604052809291908181526020018280546102dc906154f4565b80156103295780601f106102fe57610100808354040283529160200191610329565b820191906000526020600020905b81548152906001019060200180831161030c57829003601f168201915b50505050508152602001600582018054610342906154f4565b80601f016020809104026020016040519081016040528092919081815260200182805461036e906154f4565b80156103bb5780601f10610390576101008083540402835291602001916103bb565b820191906000526020600020905b81548152906001019060200180831161039e57829003601f168201915b505050918352505060068201546020820152600782015460408201526008820154606082015260098201546080820152600a82015460a0820152600b808301546001600160a01b03811660c084015260e090920191600160a01b900460ff169081111561042a5761042a614f53565b600b81111561043b5761043b614f53565b8152602001600c8201805461044f906154f4565b80601f016020809104026020016040519081016040528092919081815260200182805461047b906154f4565b80156104c85780601f1061049d576101008083540402835291602001916104c8565b820191906000526020600020905b8154815290600101906020018083116104ab57829003601f168201915b5050509183525050604080518082018252600d8401546001600160a01b03168152600e840154602082810191909152830152600f9092015460ff161515910152905061051381613f5c565b6002816101800151600b81111561052c5761052c614f53565b0361058c5781604051633d743ccd60e11b81526004016105839181526040602082018190526017908201527f57696e6e657220616c7265616479206465636c61726564000000000000000000606082015260800190565b60405180910390fd5b8061014001514210156105eb578160405163d979cc8360e01b8152600401610583918152604060208201819052601c908201527f41756374696f6e206973207374696c6c20696e2d70726f677265737300000000606082015260800190565b600082815260016020818152604092839020835160a08101855281546001600160a01b0316808252938201549281019290925260028101549382019390935260039092015460ff80821615156060850152610100909104161515608083015261072857600960008481548110610663576106636154de565b9060005260206000209060100201600b0160146101000a81548160ff0219169083600b81111561069557610695614f53565b0217905550604080518481523360208201526060918101829052602e918101919091527f5352206973206175746f2d63616e63656c6c656420617320746865726527732060808201526d6e6f2062696420656e747269657360901b60a08201527f1dbae0106651380ba32aa642304e531c8acdf1225e7af1db0f6dad7afe6449da9060c0015b60405180910390a1505050565b60026000848154811061073d5761073d6154de565b9060005260206000209060100201600b0160146101000a81548160ff0219169083600b81111561076f5761076f614f53565b02179055508051600080548590811061078a5761078a6154de565b9060005260206000209060100201600b0160006101000a8154816001600160a01b0302191690836001600160a01b031602179055507fcc384d0e757a393d35cc24e4190ceabd3f5052d26be871919fbe7e32ac5b2c6383826000015160405161082d9291909182526001600160a01b03166020820152606060408201819052600f908201526e15da5b9b995c88191958db185c9959608a1b608082015260a00190565b60405180910390a16108456002848360000151613fcf565b505050565b600080838154811061085e5761085e6154de565b90600052602060002090601002016040518061020001604052908160008201548152602001600182018054610892906154f4565b80601f01602080910402602001604051908101604052809291908181526020018280546108be906154f4565b801561090b5780601f106108e05761010080835404028352916020019161090b565b820191906000526020600020905b8154815290600101906020018083116108ee57829003601f168201915b505050918352505060028201546001600160a01b0390811660208301526003830154166040820152600482018054606090920191610948906154f4565b80601f0160208091040260200160405190810160405280929190818152602001828054610974906154f4565b80156109c15780601f10610996576101008083540402835291602001916109c1565b820191906000526020600020905b8154815290600101906020018083116109a457829003601f168201915b505050505081526020016005820180546109da906154f4565b80601f0160208091040260200160405190810160405280929190818152602001828054610a06906154f4565b8015610a535780601f10610a2857610100808354040283529160200191610a53565b820191906000526020600020905b815481529060010190602001808311610a3657829003601f168201915b505050918352505060068201546020820152600782015460408201526008820154606082015260098201546080820152600a82015460a0820152600b808301546001600160a01b03811660c084015260e090920191600160a01b900460ff1690811115610ac257610ac2614f53565b600b811115610ad357610ad3614f53565b8152602001600c82018054610ae7906154f4565b80601f0160208091040260200160405190810160405280929190818152602001828054610b13906154f4565b8015610b605780601f10610b3557610100808354040283529160200191610b60565b820191906000526020600020905b815481529060010190602001808311610b4357829003601f168201915b5050509183525050604080518082018252600d8401546001600160a01b03168152600e840154602082810191909152830152600f9092015460ff1615159101529050610bab81613f5c565b610180810151600383600b811115610bc557610bc5614f53565b148015610be35750600281600b811115610be157610be1614f53565b145b15610c0757610bf68483604001516141f9565b610c0260008585614258565b610eef565b600483600b811115610c1b57610c1b614f53565b1480610c385750600583600b811115610c3657610c36614f53565b145b80610c545750600683600b811115610c5257610c52614f53565b145b15610c7357610c68848361016001516141f9565b610bf68184866142f0565b600783600b811115610c8757610c87614f53565b1480610ca45750600883600b811115610ca257610ca2614f53565b145b80610cc05750600a83600b811115610cbe57610cbe614f53565b145b15610e8957610cd38483606001516141f9565b600681600b811115610ce757610ce7614f53565b14610d345760405162461bcd60e51b815260206004820152601a60248201527f50617263656c206973207374696c6c20696e205472616e7369740000000000006044820152606401610583565b610d4060008585614258565b600783600b811115610d5457610d54614f53565b1480610d715750600883600b811115610d6f57610d6f614f53565b145b15610e1a57610d816001856143ed565b610d8c6001836144c9565b61016082015160c0830151604051634865909760e01b81526001600160a01b037f00000000000000000000000000000000000000000000000000000000000000001692634865909792610de392889060040161552e565b600060405180830381600087803b158015610dfd57600080fd5b505af1158015610e11573d6000803e3d6000fd5b50505050610eef565b600a83600b811115610e2e57610e2e614f53565b03610c0257600a61018083015260405163bf79a7b560e01b81527f00000000000000000000000000000000000000000000000000000000000000006001600160a01b03169063bf79a7b590610de3903090869060040161555a565b83604051633d743ccd60e11b8152600401610583918152604060208201819052602b908201527f596f7520646f6e277420686176652061636365737320746f207570646174652060608201526a746869732073746174757360a81b608082015260a00190565b50505050565b6060336001600160a01b037f00000000000000000000000000000000000000000000000000000000000000001614610f6f5760405162461bcd60e51b815260206004820152601b60248201527f4f6e6c792041646d696e2063616e207669657720616c6c2053527300000000006044820152606401610583565b6000805480602002602001604051908101604052809291908181526020016000905b828210156112f157838290600052602060002090601002016040518061020001604052908160008201548152602001600182018054610fcf906154f4565b80601f0160208091040260200160405190810160405280929190818152602001828054610ffb906154f4565b80156110485780601f1061101d57610100808354040283529160200191611048565b820191906000526020600020905b81548152906001019060200180831161102b57829003601f168201915b505050918352505060028201546001600160a01b0390811660208301526003830154166040820152600482018054606090920191611085906154f4565b80601f01602080910402602001604051908101604052809291908181526020018280546110b1906154f4565b80156110fe5780601f106110d3576101008083540402835291602001916110fe565b820191906000526020600020905b8154815290600101906020018083116110e157829003601f168201915b50505050508152602001600582018054611117906154f4565b80601f0160208091040260200160405190810160405280929190818152602001828054611143906154f4565b80156111905780601f1061116557610100808354040283529160200191611190565b820191906000526020600020905b81548152906001019060200180831161117357829003601f168201915b505050918352505060068201546020820152600782015460408201526008820154606082015260098201546080820152600a82015460a0820152600b808301546001600160a01b03811660c084015260e090920191600160a01b900460ff16908111156111ff576111ff614f53565b600b81111561121057611210614f53565b8152602001600c82018054611224906154f4565b80601f0160208091040260200160405190810160405280929190818152602001828054611250906154f4565b801561129d5780601f106112725761010080835404028352916020019161129d565b820191906000526020600020905b81548152906001019060200180831161128057829003601f168201915b5050509183525050604080518082018252600d8401546001600160a01b03168152600e84015460208281019190915280840191909152600f9093015460ff1615159101529082526001929092019101610f91565b50505050905090565b60008054606091339167ffffffffffffffff81111561131b5761131b615142565b60405190808252806020026020018201604052801561135457816020015b611341614dd0565b8152602001906001900390816113395790505b5090506000805b60005481101561174c576000808281548110611379576113796154de565b906000526020600020906010020160405180610200016040529081600082015481526020016001820180546113ad906154f4565b80601f01602080910402602001604051908101604052809291908181526020018280546113d9906154f4565b80156114265780601f106113fb57610100808354040283529160200191611426565b820191906000526020600020905b81548152906001019060200180831161140957829003601f168201915b505050918352505060028201546001600160a01b0390811660208301526003830154166040820152600482018054606090920191611463906154f4565b80601f016020809104026020016040519081016040528092919081815260200182805461148f906154f4565b80156114dc5780601f106114b1576101008083540402835291602001916114dc565b820191906000526020600020905b8154815290600101906020018083116114bf57829003601f168201915b505050505081526020016005820180546114f5906154f4565b80601f0160208091040260200160405190810160405280929190818152602001828054611521906154f4565b801561156e5780601f106115435761010080835404028352916020019161156e565b820191906000526020600020905b81548152906001019060200180831161155157829003601f168201915b505050918352505060068201546020820152600782015460408201526008820154606082015260098201546080820152600a82015460a0820152600b808301546001600160a01b03811660c084015260e090920191600160a01b900460ff16908111156115dd576115dd614f53565b600b8111156115ee576115ee614f53565b8152602001600c82018054611602906154f4565b80601f016020809104026020016040519081016040528092919081815260200182805461162e906154f4565b801561167b5780601f106116505761010080835404028352916020019161167b565b820191906000526020600020905b81548152906001019060200180831161165e57829003601f168201915b5050509183525050604080518082018252600d8401546001600160a01b039081168252600e850154602080840191909152840191909152600f9093015460ff16151591810191909152820151919250868116911614806116f05750846001600160a01b031681606001516001600160a01b0316145b806117115750846001600160a01b03168161016001516001600160a01b0316145b156117435780848481518110611729576117296154de565b6020026020010181905250828061173f90615594565b9350505b5060010161135b565b5060008167ffffffffffffffff81111561176857611768615142565b6040519080825280602002602001820160405280156117a157816020015b61178e614dd0565b8152602001906001900390816117865790505b50905060005b828110156117ee578381815181106117c1576117c16154de565b60200260200101518282815181106117db576117db6154de565b60209081029190910101526001016117a7565b50949350505050565b338260600151604051806040016040528060088152602001672932b1b2b4bb32b960c11b8152508460a00151847f00000000000000000000000000000000000000000000000000000000000000006001600160a01b0316631752b69386868686866040518663ffffffff1660e01b81526004016118789594939291906155ad565b60006040518083038186803b15801561189057600080fd5b505afa1580156118a4573d6000803e3d6000fd5b505050506118b28734614633565b60008080549050905060006040518061020001604052808381526020018a602001518152602001336001600160a01b031681526020018a606001516001600160a01b031681526020018a6080015181526020018a60a0015181526020018a60c00151670de0b6b3a7640000611927919061560b565b81523460208201526101008b015160408201526101208b0151606082015260800160018b6101800151600b81111561196157611961614f53565b1461196d576000611988565b6101408b015161197e90603c61560b565b6119889042615622565b81526000602082015260400160018b6101800151600b8111156119ad576119ad614f53565b146119b95760006119bc565b60015b600b8111156119cd576119cd614f53565b81526040805160208181018352600080835281850192909252825180840184528281528082018390529284019290925260609092018290528154600181018355918052825160109092027f290decd9548b62a8d60345a988386fc84ba6bc95484008f6362f93160ef3e56381019283559083015192935083927f290decd9548b62a8d60345a988386fc84ba6bc95484008f6362f93160ef3e56490910190611a759082615685565b5060408201516002820180546001600160a01b039283166001600160a01b031991821617909155606084015160038401805491909316911617905560808201516004820190611ac49082615685565b5060a08201516005820190611ad99082615685565b5060c0820151600682015560e0820151600782015561010082015160088201556101208201516009820155610140820151600a820155610160820151600b80830180546001600160a01b039093166001600160a01b03198416811782556101808601519391926001600160a81b03199092161790600160a01b908490811115611b6457611b64614f53565b02179055506101a0820151600c820190611b7e9082615685565b506101c08201518051600d830180546001600160a01b0319166001600160a01b0390921691909117905560200151600e8201556101e090910151600f909101805460ff19169115159190911790556040517fc5820fcd5faeaeab97b46f2af26b0fd737a1fa2bd4eb8a752fb43416c6b63a2590611bfe9083903390615745565b60405180910390a16040805160a0810190915260008082529060208101611c26346001615622565b81526020018b60c00151670de0b6b3a7640000611c43919061560b565b8152600060208083018290526040928301829052958152600180875290829020835181546001600160a01b0319166001600160a01b039091161781559583015190860155810151600285015560608101516003909401805460809092015161ffff1990921694151561ff001916949094176101009115159190910217909255505050505050505050565b604051630a104c5360e41b815233600482018190526060916001600160a01b037f0000000000000000000000000000000000000000000000000000000000000000169063a104c5309060240160006040518083038186803b158015611d3157600080fd5b505afa158015611d45573d6000803e3d6000fd5b5050604051635151782b60e01b8152336004820152600092507f00000000000000000000000000000000000000000000000000000000000000006001600160a01b03169150635151782b90602401600060405180830381865afa158015611db0573d6000803e3d6000fd5b505050506040513d6000823e601f3d908101601f19168201604052611dd891908101906157dd565b600080549192509067ffffffffffffffff811115611df857611df8615142565b604051908082528060200260200182016040528015611e3157816020015b611e1e614dd0565b815260200190600190039081611e165790505b5090506000805b60005481101561236f576000808281548110611e5657611e566154de565b90600052602060002090601002016040518061020001604052908160008201548152602001600182018054611e8a906154f4565b80601f0160208091040260200160405190810160405280929190818152602001828054611eb6906154f4565b8015611f035780601f10611ed857610100808354040283529160200191611f03565b820191906000526020600020905b815481529060010190602001808311611ee657829003601f168201915b505050918352505060028201546001600160a01b0390811660208301526003830154166040820152600482018054606090920191611f40906154f4565b80601f0160208091040260200160405190810160405280929190818152602001828054611f6c906154f4565b8015611fb95780601f10611f8e57610100808354040283529160200191611fb9565b820191906000526020600020905b815481529060010190602001808311611f9c57829003601f168201915b50505050508152602001600582018054611fd2906154f4565b80601f0160208091040260200160405190810160405280929190818152602001828054611ffe906154f4565b801561204b5780601f106120205761010080835404028352916020019161204b565b820191906000526020600020905b81548152906001019060200180831161202e57829003601f168201915b505050918352505060068201546020820152600782015460408201526008820154606082015260098201546080820152600a82015460a0820152600b808301546001600160a01b03811660c084015260e090920191600160a01b900460ff16908111156120ba576120ba614f53565b600b8111156120cb576120cb614f53565b8152602001600c820180546120df906154f4565b80601f016020809104026020016040519081016040528092919081815260200182805461210b906154f4565b80156121585780601f1061212d57610100808354040283529160200191612158565b820191906000526020600020905b81548152906001019060200180831161213b57829003601f168201915b5050509183525050604080518082018252600d8401546001600160a01b03168152600e840154602082810191909152830152600f9092015460ff16151591015290506001816101800151600b8111156121b3576121b3614f53565b1480156121c957506121c985826080015161477b565b80156121de57506121de858260a0015161477b565b15612366578051600090815260026020908152604080832080548251818502810185019093528083529192909190849084015b828210156122835760008481526020908190206040805160a0810182526004860290920180546001600160a01b03168352600180820154848601526002820154928401929092526003015460ff8082161515606085015261010090910416151560808301529083529092019101612211565b50505050905060005b815181101561233757336001600160a01b03168282815181106122b1576122b16154de565b6020026020010151600001516001600160a01b03160361232f578181815181106122dd576122dd6154de565b6020908102919091010151516101c08401516001600160a01b0390911690528151829082908110612310576123106154de565b602002602001015160200151836101c001516020018181525050612337565b60010161228c565b508185858151811061234b5761234b6154de565b6020026020010181905250838061236190615594565b945050505b50600101611e38565b5060008167ffffffffffffffff81111561238b5761238b615142565b6040519080825280602002602001820160405280156123c457816020015b6123b1614dd0565b8152602001906001900390816123a95790505b50905060005b82811015612411578381815181106123e4576123e46154de565b60200260200101518282815181106123fe576123fe6154de565b60209081029190910101526001016123ca565b5094505050505090565b604051630a104c5360e41b81523360048201819052907f00000000000000000000000000000000000000000000000000000000000000006001600160a01b03169063a104c5309060240160006040518083038186803b15801561247d57600080fd5b505afa158015612491573d6000803e3d6000fd5b5050505060008084815481106124a9576124a96154de565b906000526020600020906010020160405180610200016040529081600082015481526020016001820180546124dd906154f4565b80601f0160208091040260200160405190810160405280929190818152602001828054612509906154f4565b80156125565780601f1061252b57610100808354040283529160200191612556565b820191906000526020600020905b81548152906001019060200180831161253957829003601f168201915b505050918352505060028201546001600160a01b0390811660208301526003830154166040820152600482018054606090920191612593906154f4565b80601f01602080910402602001604051908101604052809291908181526020018280546125bf906154f4565b801561260c5780601f106125e15761010080835404028352916020019161260c565b820191906000526020600020905b8154815290600101906020018083116125ef57829003601f168201915b50505050508152602001600582018054612625906154f4565b80601f0160208091040260200160405190810160405280929190818152602001828054612651906154f4565b801561269e5780601f106126735761010080835404028352916020019161269e565b820191906000526020600020905b81548152906001019060200180831161268157829003601f168201915b505050918352505060068201546020820152600782015460408201526008820154606082015260098201546080820152600a82015460a0820152600b808301546001600160a01b03811660c084015260e090920191600160a01b900460ff169081111561270d5761270d614f53565b600b81111561271e5761271e614f53565b8152602001600c82018054612732906154f4565b80601f016020809104026020016040519081016040528092919081815260200182805461275e906154f4565b80156127ab5780601f10612780576101008083540402835291602001916127ab565b820191906000526020600020905b81548152906001019060200180831161278e57829003601f168201915b5050509183525050604080518082018252600d8401546001600160a01b03168152600e840154602082810191909152830152600f9092015460ff16151591015290506001816101800151600b81111561280657612806614f53565b146128675783604051634dd0fc4960e11b81526004016105839181526040602082018190526021908201527f53522073746f707065642074616b696e67206e65772042696420656e747269656060820152607360f81b608082015260a00190565b80610140015142106128d3578360405163113630f960e11b81526004016105839181526040602082018190526025908201527f41756374696f6e20666f7220746869732053522068617320656e64656420616c606082015264726561647960d81b608082015260a00190565b604051635151782b60e01b81523360048201526000907f00000000000000000000000000000000000000000000000000000000000000006001600160a01b031690635151782b90602401600060405180830381865afa15801561293a573d6000803e3d6000fd5b505050506040513d6000823e601f3d908101601f1916820160405261296291908101906157dd565b905061297281836080015161477b565b15806129895750612987818360a0015161477b565b155b156129df578460405163024b7feb60e01b815260040161058391815260406020808301829052908201527f5352206973206e6f7420696e20796f7572207365727669636520726567696f6e606082015260800190565b8160c001513414612a4a576040805163407b8f0960e11b81523460048201526024810191909152602660448201527f436172676f20696e73757261626c652076616c75652073686f756c64206265206064820152651cdd185ad95960d21b608482015260a401610583565b831580612a5a57508160e0015184115b15612ac0578360405163407b8f0960e11b81526004016105839181526040602082018190526026908201527f496e76616c696420536572766963652046656520696e2064757463682062696460608201526520656e74727960d01b608082015260a00190565b600085815260026020908152604080832080548251818502810185019093528083529192909190849084015b82821015612b5e5760008481526020908190206040805160a0810182526004860290920180546001600160a01b03168352600180820154848601526002820154928401929092526003015460ff8082161515606085015261010090910416151560808301529083529092019101612aec565b505050509050612b6e3382614812565b6040805160a0810182523380825260208083018981523484860190815260006060808701828152608088018381528f845260028088528a8520805460018082018355918752958990208b5160049097020180546001600160a01b039097166001600160a01b0319909716969096178655965196850196909655935194830194909455925160039091018054925115156101000261ff00199215159290921661ffff199093169290921717905584518b81529182019290925292830188905290917fed005aaa39a09cc5fe3a562559616538c6c1d2394a18bdbf2f89ddd565ed31c7910160405180910390a160008781526001602081905260409091200154861015612ce857600087815260016020818152604092839020845181546001600160a01b039091166001600160a01b03199091161781559084015191810191909155908201516002820155606082015160039091018054608084015115156101000261ff00199315159390931661ffff19909116179190911790555b50505050505050565b612cfc8383836148cf565b6000808681548110612d1057612d106154de565b90600052602060002090601002016040518061020001604052908160008201548152602001600182018054612d44906154f4565b80601f0160208091040260200160405190810160405280929190818152602001828054612d70906154f4565b8015612dbd5780601f10612d9257610100808354040283529160200191612dbd565b820191906000526020600020905b815481529060010190602001808311612da057829003601f168201915b505050918352505060028201546001600160a01b0390811660208301526003830154166040820152600482018054606090920191612dfa906154f4565b80601f0160208091040260200160405190810160405280929190818152602001828054612e26906154f4565b8015612e735780601f10612e4857610100808354040283529160200191612e73565b820191906000526020600020905b815481529060010190602001808311612e5657829003601f168201915b50505050508152602001600582018054612e8c906154f4565b80601f0160208091040260200160405190810160405280929190818152602001828054612eb8906154f4565b8015612f055780601f10612eda57610100808354040283529160200191612f05565b820191906000526020600020905b815481529060010190602001808311612ee857829003601f168201915b505050918352505060068201546020820152600782015460408201526008820154606082015260098201546080820152600a82015460a0820152600b808301546001600160a01b03811660c084015260e090920191600160a01b900460ff1690811115612f7457612f74614f53565b600b811115612f8557612f85614f53565b8152602001600c82018054612f99906154f4565b80601f0160208091040260200160405190810160405280929190818152602001828054612fc5906154f4565b80156130125780601f10612fe757610100808354040283529160200191613012565b820191906000526020600020905b815481529060010190602001808311612ff557829003601f168201915b5050509183525050604080518082018252600d8401546001600160a01b03168152600e840154602082810191909152830152600f9092015460ff16151591015290506000816101800151600b81111561306d5761306d614f53565b1415806130a95750600085600b81111561308957613089614f53565b141580156130a95750600185600b8111156130a6576130a6614f53565b14155b1561313d57856000826101800151600b8111156130c8576130c8614f53565b036130eb576040518060600160405280602c8152602001615df9602c9139613122565b6040518060400160405280601781526020017f5352206973206e6f7420696e204452414654206d6f64650000000000000000008152505b604051639cad57d160e01b8152600401610583929190615812565b61314b8682604001516141f9565b836000878154811061315f5761315f6154de565b9060005260206000209060100201600801819055508260008781548110613188576131886154de565b60009182526020909120600960109092020101556131a782603c61560b565b6131b19042615622565b600087815481106131c4576131c46154de565b9060005260206000209060100201600a018190555084600087815481106131ed576131ed6154de565b9060005260206000209060100201600b0160146101000a81548160ff0219169083600b81111561321f5761321f614f53565b02179055507f98380a95228b2ef4015ae50d1cadfb8f4c7440f946504e2c9f9daa3ce0704f3d60008781548110613258576132586154de565b9060005260206000209060100201336040516132759291906159d2565b60405180910390a1505050505050565b6000808281548110613299576132996154de565b906000526020600020906010020160405180610200016040529081600082015481526020016001820180546132cd906154f4565b80601f01602080910402602001604051908101604052809291908181526020018280546132f9906154f4565b80156133465780601f1061331b57610100808354040283529160200191613346565b820191906000526020600020905b81548152906001019060200180831161332957829003601f168201915b505050918352505060028201546001600160a01b0390811660208301526003830154166040820152600482018054606090920191613383906154f4565b80601f01602080910402602001604051908101604052809291908181526020018280546133af906154f4565b80156133fc5780601f106133d1576101008083540402835291602001916133fc565b820191906000526020600020905b8154815290600101906020018083116133df57829003601f168201915b50505050508152602001600582018054613415906154f4565b80601f0160208091040260200160405190810160405280929190818152602001828054613441906154f4565b801561348e5780601f106134635761010080835404028352916020019161348e565b820191906000526020600020905b81548152906001019060200180831161347157829003601f168201915b505050918352505060068201546020820152600782015460408201526008820154606082015260098201546080820152600a82015460a0820152600b808301546001600160a01b03811660c084015260e090920191600160a01b900460ff16908111156134fd576134fd614f53565b600b81111561350e5761350e614f53565b8152602001600c82018054613522906154f4565b80601f016020809104026020016040519081016040528092919081815260200182805461354e906154f4565b801561359b5780601f106135705761010080835404028352916020019161359b565b820191906000526020600020905b81548152906001019060200180831161357e57829003601f168201915b5050509183525050604080518082018252600d8401546001600160a01b03168152600e840154602082810191909152830152600f9092015460ff1615159101529050600b816101800151600b8111156135f6576135f6614f53565b0361364d5781604051635a33443d60e11b8152600401610583918152604060208201819052601b908201527f4469737075746520697320616c7265616479207265736f6c7665640000000000606082015260800190565b60405163d5cc26c160e01b8152600481018390526000907f00000000000000000000000000000000000000000000000000000000000000006001600160a01b03169063d5cc26c1906024016000604051808303816000875af11580156136b7573d6000803e3d6000fd5b505050506040513d6000823e601f3d908101601f191682016040526136df9190810190615a8f565b905081604001516001600160a01b0316336001600160a01b03161415801561371d575081606001516001600160a01b0316336001600160a01b031614155b801561374057508161016001516001600160a01b0316336001600160a01b031614155b156137885782604051633d743ccd60e11b8152600401610583918152604060208201819052600e908201526d139bdd08105d5d1a1bdc9a5e995960921b606082015260800190565b806101800151600084815481106137a1576137a16154de565b9060005260206000209060100201600b0160146101000a81548160ff0219169083600b8111156137d3576137d3614f53565b0217905550806101a00151600084815481106137f1576137f16154de565b9060005260206000209060100201600c01908161380e9190615685565b5061383c816101a0015160405180604001604052806006815260200165222924ab22a960d11b815250614c5e565b1561393c57613850600183600001516143ed565b61385b6001826144c9565b61016082015160c0830151604051634865909760e01b81526001600160a01b037f000000000000000000000000000000000000000000000000000000000000000016926348659097926138b39260079060040161552e565b600060405180830381600087803b1580156138cd57600080fd5b505af11580156138e1573d6000803e3d6000fd5b505050507ff58212a7d95c60f5af23196bbf1f8f0f6804fd876aa00f30433f14df14c097508360405161071b918152604060208201819052600e908201526d223934bb32b9103430b9903bb7b760911b606082015260800190565b61396b816101a00151604051806040016040528060088152602001672922a1a2a4ab22a960c11b815250614c5e565b156139ed5761398281606001518260c00151614cb7565b61399481604001518260e00151614cb7565b7ff58212a7d95c60f5af23196bbf1f8f0f6804fd876aa00f30433f14df14c097508360405161071b9181526040602082018190526010908201526f2932b1b2b4bb32b9103430b9903bb7b760811b606082015260800190565b7ff58212a7d95c60f5af23196bbf1f8f0f6804fd876aa00f30433f14df14c097508360405161071b918152604060208201819052603d908201527f447261772c205368697070657220686173207370656369616c2061636365737360608201527f20746f20766f746520666f7220627265616b696e672074686520746965000000608082015260a00190565b6000808281548110613a8d57613a8d6154de565b90600052602060002090601002016040518061020001604052908160008201548152602001600182018054613ac1906154f4565b80601f0160208091040260200160405190810160405280929190818152602001828054613aed906154f4565b8015613b3a5780601f10613b0f57610100808354040283529160200191613b3a565b820191906000526020600020905b815481529060010190602001808311613b1d57829003601f168201915b505050918352505060028201546001600160a01b0390811660208301526003830154166040820152600482018054606090920191613b77906154f4565b80601f0160208091040260200160405190810160405280929190818152602001828054613ba3906154f4565b8015613bf05780601f10613bc557610100808354040283529160200191613bf0565b820191906000526020600020905b815481529060010190602001808311613bd357829003601f168201915b50505050508152602001600582018054613c09906154f4565b80601f0160208091040260200160405190810160405280929190818152602001828054613c35906154f4565b8015613c825780601f10613c5757610100808354040283529160200191613c82565b820191906000526020600020905b815481529060010190602001808311613c6557829003601f168201915b505050918352505060068201546020820152600782015460408201526008820154606082015260098201546080820152600a82015460a0820152600b808301546001600160a01b03811660c084015260e090920191600160a01b900460ff1690811115613cf157613cf1614f53565b600b811115613d0257613d02614f53565b8152602001600c82018054613d16906154f4565b80601f0160208091040260200160405190810160405280929190818152602001828054613d42906154f4565b8015613d8f5780601f10613d6457610100808354040283529160200191613d8f565b820191906000526020600020905b815481529060010190602001808311613d7257829003601f168201915b5050509183525050604080518082018252600d8401546001600160a01b03168152600e840154602082810191909152830152600f9092015460ff1615159101529050613dda81613f5c565b613de88282604001516141f9565b6000816101800151600b811115613e0157613e01614f53565b14613e6e5781604051630132ebaf60e61b8152600401610583918152604060208201819052602d908201527f53522063616e63656c6c6174696f6e20697320616c6c6f776564206f6e6c792060608201526c696e204452414654206d6f646560981b608082015260a00190565b600960008381548110613e8357613e836154de565b9060005260206000209060100201600b0160146101000a81548160ff0219169083600b811115613eb557613eb5614f53565b021790555080604001516001600160a01b03166108fc8260e001519081150290604051600060405180830381858888f19350505050158015613efb573d6000803e3d6000fd5b50604080518381523360208201526060818301819052600c908201526b14d48818d85b98d95b1b195960a21b608082015290517f1dbae0106651380ba32aa642304e531c8acdf1225e7af1db0f6dad7afe6449da9181900360a00190a15050565b6009816101800151600b811115613f7557613f75614f53565b03613fcc57805160408051633d743ccd60e11b815260048101929092526024820152601760448201527f535220697320616c72656164792063616e63656c6c65640000000000000000006064820152608401610583565b50565b60008281526020848152604080832080548251818502810185019093528083529192909190849084015b8282101561406b5760008481526020908190206040805160a0810182526004860290920180546001600160a01b03168352600180820154848601526002820154928401929092526003015460ff8082161515606085015261010090910416151560808301529083529092019101613ff9565b50505050905060005b81518110156141f25781818151811061408f5761408f6154de565b6020026020010151606001511580156140d75750826001600160a01b03168282815181106140bf576140bf6154de565b6020026020010151600001516001600160a01b031614155b156141ea5760008282815181106140f0576140f06154de565b602002602001015160400151905080471015801561413e575060006001600160a01b0316838381518110614126576141266154de565b6020026020010151600001516001600160a01b031614155b156141e85760018660008781526020019081526020016000208381548110614168576141686154de565b906000526020600020906004020160030160006101000a81548160ff0219169083151502179055508282815181106141a2576141a26154de565b6020026020010151600001516001600160a01b03166108fc829081150290604051600060405180830381858888f193505050501580156141e6573d6000803e3d6000fd5b505b505b600101614074565b5050505050565b336001600160a01b038216146142545781604051633d743ccd60e11b815260040161058391815260406020820181905260169082015275165bdd48185c99481b9bdd08185d5d1a1bdc9a5e995960521b606082015260800190565b5050565b8083838154811061426b5761426b6154de565b9060005260206000209060100201600b0160146101000a81548160ff0219169083600b81111561429d5761429d614f53565b02179055507fc4ee4cf2a23a0937d7c43a6c2407367cca93520539d435227f4c5e7462fa982f8383815481106142d5576142d56154de565b906000526020600020906010020160405161071b9190615c18565b6000600384600b81111561430657614306614f53565b1480156143245750600483600b81111561432257614322614f53565b145b8061435c5750600484600b81111561433e5761433e614f53565b14801561435c5750600583600b81111561435a5761435a614f53565b145b806143945750600584600b81111561437657614376614f53565b1480156143945750600683600b81111561439257614392614f53565b145b905080610eef5781604051633d743ccd60e11b8152600401610583918152604060208201819052601e908201527f4e6f74207468652072696768742073746174757320746f207570646174650000606082015260800190565b60008181526020838152604091829020825160a08101845281546001600160a01b0316815260018201549281019290925260028101549282019290925260039091015460ff8082161515606084018190526101009092041615156080830152610845578060400151471015801561446d575080516001600160a01b031615155b1561084557600082815260208490526040808220600301805460ff1916600117905582518382015191516001600160a01b039091169282156108fc02929190818181858888f19350505050158015610eef573d6000803e3d6000fd5b805160009081526020838152604091829020825160a08101845281546001600160a01b0316815260018201549281019290925260028101549282019290925260039091015460ff80821615156060840152610100909104161515608082015260e0820151471080159061453e57508060800151155b156108455781516000908152602084905260409020600301805461ff00191661010017905580516001600160a01b0316156145b257805160208201516040516001600160a01b039092169181156108fc0291906000818181858888f193505050501580156145b0573d6000803e3d6000fd5b505b600081602001518360e001516145c89190615c57565b1180156145e1575060408201516001600160a01b031615155b156108455781604001516001600160a01b03166108fc82602001518460e0015161460b9190615c57565b6040518115909202916000818181858888f19350505050158015610eef573d6000803e3d6000fd5b614641826101800151614d0a565b61464e8260200151614d5e565b61465b8260800151614d82565b6146688260a00151614d82565b61467a82608001518360a00151614da6565b60008260c00151116146f55760c08201516040805163407b8f0960e11b815260048101929092526024820152603160448201527f436172676f20696e737572616e63652076616c75652073686f756c642062652060648201527067726561746572207468616e207a65726f60781b608482015260a401610583565b60008111614761578060405163407b8f0960e11b81526004016105839181526040602082018190526029908201527f536572766963652076616c75652073686f756c642062652067726561746572206060820152687468616e207a65726f60b81b608082015260a00190565b6142548261010001518361012001518461014001516148cf565b805182516000918491849110156147975760009250505061480c565b60005b8251811015614804578181815181106147b5576147b56154de565b602001015160f81c60f81b6001600160f81b0319168382815181106147dc576147dc6154de565b01602001516001600160f81b031916146147fc576000935050505061480c565b60010161479a565b506001925050505b92915050565b60005b815181101561084557826001600160a01b031682828151811061483a5761483a6154de565b6020026020010151600001516001600160a01b0316036148c75760408051630c5f8cad60e01b81526001600160a01b03851660048201526024810191909152603060448201527f596f75206861766520616c72656164792062696464656420666f72207468697360648201526f081cd95c9d9a58d9481c995c5d595cdd60821b608482015260a401610583565b600101614815565b6000811161494357806040516313a2ac8160e11b81526004016105839181526040602082018190526031908201527f41756374696f6e2074696d652063616e6e6f74206265206c657373207468616e606082015270206f7220657175616c20746f207a65726f60781b608082015260a00190565b4283116149ae57826040516313a2ac8160e11b81526004016105839181526040602082018190526029908201527f52657175657374207069636b75702074696d65206d75737420626520696e207460608201526868652066757475726560b81b608082015260a00190565b6149ba42610e10615622565b831015614a3957826040516313a2ac8160e11b8152600401610583918152604060208201819052603a908201527f52657175657374207069636b75702074696d65206d757374206265206166746560608201527f72203120686f75722066726f6d2063757272656e742074696d65000000000000608082015260a00190565b82614a4582603c61560b565b614a4f9042615622565b10614acc57816040516313a2ac8160e11b8152600401610583918152604060208201819052603b908201527f526571756573746564207069636b75702074696d65206d75737420626520677260608201527f6561746572207468616e207468652061756374696f6e2074696d650000000000608082015260a00190565b428211614b3957816040516313a2ac8160e11b8152600401610583918152604060208201819052602b908201527f526571756573742064656c69766572792074696d65206d75737420626520696e60608201526a207468652066757475726560a81b608082015260a00190565b828211614bb857816040516313a2ac8160e11b8152600401610583918152604060208201819052603b908201527f5265717565737465642064656c69766572792074696d65206d7573742062652060608201527f616674657220726571756573746564207069636b75702074696d650000000000608082015260a00190565b610708614bc58484615c57565b101561084557816040516313a2ac8160e11b81526004016105839181526040602082018190526052908201527f526571756573746564207069636b757020616e642064656c697665727920746960608201527f6d65732073686f756c6420686176652061206d696e696d756d206f66203330206080820152716d696e7574657320646966666572656e636560701b60a082015260c00190565b600081604051602001614c719190615c6a565b6040516020818303038152906040528051906020012083604051602001614c989190615c6a565b6040516020818303038152906040528051906020012014905092915050565b804710158015614ccf57506001600160a01b03821615155b15614254576040516001600160a01b0383169082156108fc029083906000818181858888f19350505050158015610845573d6000803e3d6000fd5b600081600b811115614d1e57614d1e614f53565b14158015614d3e5750600181600b811115614d3b57614d3b614f53565b14155b15613fcc578060405163937efaa160e01b81526004016105839190615c86565b8051600003613fcc5780604051634244bb2f60e01b81526004016105839190615cf3565b6003815111613fcc57806040516322d9de9760e21b81526004016105839190615d3d565b614db08282614c5e565b1561425457816040516322d9de9760e21b81526004016105839190615d8f565b604051806102000160405280600081526020016060815260200160006001600160a01b0316815260200160006001600160a01b031681526020016060815260200160608152602001600081526020016000815260200160008152602001600081526020016000815260200160006001600160a01b031681526020016000600b811115614e5e57614e5e614f53565b815260200160608152602001614e90604051806040016040528060006001600160a01b03168152602001600081525090565b8152600060209091015290565b600060208284031215614eaf57600080fd5b5035919050565b600c8110613fcc57600080fd5b8035614ece81614eb6565b919050565b60008060408385031215614ee657600080fd5b823591506020830135614ef881614eb6565b809150509250929050565b60005b83811015614f1e578181015183820152602001614f06565b50506000910152565b60008151808452614f3f816020860160208601614f03565b601f01601f19169290920160200192915050565b634e487b7160e01b600052602160045260246000fd5b600c8110614f8757634e487b7160e01b600052602160045260246000fd5b9052565b6000610220825184526020830151816020860152614fab82860182614f27565b9150506040830151614fc860408601826001600160a01b03169052565b506060830151614fe360608601826001600160a01b03169052565b5060808301518482036080860152614ffb8282614f27565b91505060a083015184820360a08601526150158282614f27565b91505060c083015160c085015260e083015160e08501526101008084015181860152506101208084015181860152506101408084015181860152506101608084015161506b828701826001600160a01b03169052565b50506101808084015161508082870182614f69565b50506101a0808401518583038287015261509a8382614f27565b925050506101c0808401516150c48287018280516001600160a01b03168252602090810151910152565b50506101e08301518015156102008601525b509392505050565b600060208083016020845280855180835260408601915060408160051b87010192506020870160005b8281101561513557603f19888603018452615123858351614f8b565b94509285019290850190600101615107565b5092979650505050505050565b634e487b7160e01b600052604160045260246000fd5b6040805190810167ffffffffffffffff8111828210171561517b5761517b615142565b60405290565b604051610200810167ffffffffffffffff8111828210171561517b5761517b615142565b604051601f8201601f1916810167ffffffffffffffff811182821017156151ce576151ce615142565b604052919050565b600067ffffffffffffffff8211156151f0576151f0615142565b50601f01601f191660200190565b600082601f83011261520f57600080fd5b813561522261521d826151d6565b6151a5565b81815284602083860101111561523757600080fd5b816020850160208301376000918101602001919091529392505050565b6001600160a01b0381168114613fcc57600080fd5b8035614ece81615254565b60006040828403121561528657600080fd5b61528e615158565b9050813561529b81615254565b808252506020820135602082015292915050565b8015158114613fcc57600080fd5b8035614ece816152af565b600080604083850312156152db57600080fd5b823567ffffffffffffffff808211156152f357600080fd5b90840190610220828703121561530857600080fd5b615310615181565b8235815260208301358281111561532657600080fd5b615332888286016151fe565b60208301525061534460408401615269565b604082015261535560608401615269565b606082015260808301358281111561536c57600080fd5b615378888286016151fe565b60808301525060a08301358281111561539057600080fd5b61539c888286016151fe565b60a08301525060c0838101359082015260e080840135908201526101008084013590820152610120808401359082015261014080840135908201526101606153e5818501615269565b908201526101806153f7848201614ec3565b908201526101a0838101358381111561540f57600080fd5b61541b898287016151fe565b8284015250506101c061543088828601615274565b9082015261544161020084016152bd565b6101e08201529350602085013591508082111561545d57600080fd5b5061546a858286016151fe565b9150509250929050565b6000806040838503121561548757600080fd5b50508035926020909101359150565b600080600080600060a086880312156154ae57600080fd5b8535945060208601356154c081614eb6565b94979496505050506040830135926060810135926080909101359150565b634e487b7160e01b600052603260045260246000fd5b600181811c9082168061550857607f821691505b60208210810361552857634e487b7160e01b600052602260045260246000fd5b50919050565b6001600160a01b038416815260208101839052606081016155526040830184614f69565b949350505050565b6001600160a01b038316815260406020820181905260009061555290830184614f8b565b634e487b7160e01b600052601160045260246000fd5b6000600182016155a6576155a661557e565b5060010190565b6001600160a01b0386811682528516602082015260a0604082018190526000906155d990830186614f27565b82810360608401526155eb8186614f27565b905082810360808401526155ff8185614f27565b98975050505050505050565b808202811582820484141761480c5761480c61557e565b8082018082111561480c5761480c61557e565b601f821115610845576000816000526020600020601f850160051c8101602086101561565e5750805b601f850160051c820191505b8181101561567d5782815560010161566a565b505050505050565b815167ffffffffffffffff81111561569f5761569f615142565b6156b3816156ad84546154f4565b84615635565b602080601f8311600181146156e857600084156156d05750858301515b600019600386901b1c1916600185901b17855561567d565b600085815260208120601f198616915b82811015615717578886015182559484019460019091019084016156f8565b50858210156157355787850151600019600388901b60f8161c191681555b5050505050600190811b01905550565b6060815260006157586060830185614f8b565b6001600160a01b0393909316602083810191909152828403604093840152600f84526e13995dc814d4881a5cc81859191959608a1b908401525001919050565b600082601f8301126157a957600080fd5b81516157b761521d826151d6565b8181528460208386010111156157cc57600080fd5b615552826020830160208701614f03565b6000602082840312156157ef57600080fd5b815167ffffffffffffffff81111561580657600080fd5b61555284828501615798565b8281526040602082015260006155526040830184614f27565b60008154615838816154f4565b808552602060018381168015615855576001811461586f5761589d565b60ff1985168884015283151560051b88018301955061589d565b866000528260002060005b858110156158955781548a820186015290830190840161587a565b890184019650505b505050505092915050565b6000610220825484528060208501526158c68185016001850161582b565b90506158dc60028401546001600160a01b031690565b6001600160a01b0390811660408601526003840154166060850152838103608085015261590c816004850161582b565b905083810360a0850152615923816005850161582b565b600684015460c0860152600784015460e086015260088401546101008601526009840154610120860152600a840154610140860152600b8401546001600160a01b038116610160870152909150615984610180860160ff8360a01c16614f69565b508381036101a085015261599b81600c850161582b565b600d8401546001600160a01b03166101c0860152600e8401546101e08601529050600f83015460ff168015156102008601526150d6565b6060815260006159e560608301856158a8565b6001600160a01b0393909316602083810191909152828403604093840152601784527f53522075706461746564207375636365737366756c6c79000000000000000000908401525001919050565b8051614ece81615254565b8051614ece81614eb6565b600060408284031215615a5b57600080fd5b615a63615158565b90508151615a7081615254565b808252506020820151602082015292915050565b8051614ece816152af565b600060208284031215615aa157600080fd5b815167ffffffffffffffff80821115615ab957600080fd5b908301906102208286031215615ace57600080fd5b615ad6615181565b82518152602083015182811115615aec57600080fd5b615af887828601615798565b602083015250615b0a60408401615a33565b6040820152615b1b60608401615a33565b6060820152608083015182811115615b3257600080fd5b615b3e87828601615798565b60808301525060a083015182811115615b5657600080fd5b615b6287828601615798565b60a08301525060c0838101519082015260e08084015190820152610100808401519082015261012080840151908201526101408084015190820152610160615bab818501615a33565b90820152610180615bbd848201615a3e565b908201526101a08381015183811115615bd557600080fd5b615be188828701615798565b8284015250506101c09150615bf886838501615a49565b82820152615c096102008401615a84565b6101e082015295945050505050565b604081526000615c2b60408301846158a8565b8281036020840152600a81526914d4881d5c19185d195960b21b60208201526040810191505092915050565b8181038181111561480c5761480c61557e565b60008251615c7c818460208701614f03565b9190910192915050565b615c908183614f69565b604060208201819052603b908201527f5352207374617475732063616e206265204452414654206f722052454144595f60608201527f464f525f41554354494f4e20647572696e67206372656174696f6e0000000000608082015260a001919050565b604081526000615d066040830184614f27565b8281036020840152601581527456616c75652063616e6e6f7420626520656d70747960581b60208201526040810191505092915050565b604081526000615d506040830184614f27565b8281036020840152601881527f496e76616c69642047656f486173682070726f7669646564000000000000000060208201526040810191505092915050565b604081526000615da26040830184614f27565b8281036020840152602e81527f4f726967696e20616e642044657374696e6174696f6e2067656f20686173682060208201526d63616e6e6f742062652073616d6560901b6040820152606081019150509291505056fe46726f6d204452414654206f6e6c792052454144595f464f525f41554354494f4e20697320616c6c6f776564a26469706673582212208a3c43dc34603a43427b611fdc9d786b95cb000227b10f671609f0c855c92a6764736f6c63430008180033",
  "linkReferences": {},
  "deployedLinkReferences": {}
}