{
  "_format": "hh-sol-artifact-1",
  "contractName": "UserRoleRequest",
  "sourceName": "contracts/UserRoleRequest.sol",
  "abi": [
    {
      "inputs": [
        {
          "internalType": "address",
          "name": "adminUID",
          "type": "address"
        },
        {
          "internalType": "address",
          "name": "dlNFTAddress",
          "type": "address"
        }
      ],
      "stateMutability": "nonpayable",
      "type": "constructor"
    },
    {
      "inputs": [
        {
          "internalType": "string",
          "name": "geoHash",
          "type": "string"
        },
        {
          "internalType": "string",
          "name": "message",
          "type": "string"
        }
      ],
      "name": "InvalidGeoHash",
      "type": "error"
    },
    {
      "inputs": [
        {
          "internalType": "address",
          "name": "uid",
          "type": "address"
        },
        {
          "internalType": "string",
          "name": "message",
          "type": "string"
        }
      ],
      "name": "InvalidInput",
      "type": "error"
    },
    {
      "inputs": [
        {
          "internalType": "string",
          "name": "value",
          "type": "string"
        },
        {
          "internalType": "string",
          "name": "message",
          "type": "string"
        }
      ],
      "name": "InvalidValue",
      "type": "error"
    },
    {
      "inputs": [
        {
          "internalType": "address",
          "name": "uid",
          "type": "address"
        },
        {
          "internalType": "string",
          "name": "message",
          "type": "string"
        }
      ],
      "name": "NFTNotFound",
      "type": "error"
    },
    {
      "inputs": [
        {
          "internalType": "address",
          "name": "uid",
          "type": "address"
        },
        {
          "internalType": "string",
          "name": "message",
          "type": "string"
        }
      ],
      "name": "NotAuthorized",
      "type": "error"
    },
    {
      "inputs": [
        {
          "internalType": "address",
          "name": "owner",
          "type": "address"
        }
      ],
      "name": "OwnableInvalidOwner",
      "type": "error"
    },
    {
      "inputs": [
        {
          "internalType": "address",
          "name": "account",
          "type": "address"
        }
      ],
      "name": "OwnableUnauthorizedAccount",
      "type": "error"
    },
    {
      "inputs": [
        {
          "internalType": "address",
          "name": "uid",
          "type": "address"
        },
        {
          "internalType": "string",
          "name": "message",
          "type": "string"
        },
        {
          "internalType": "uint256",
          "name": "requestId",
          "type": "uint256"
        }
      ],
      "name": "RequestAlreadyProcessed",
      "type": "error"
    },
    {
      "inputs": [
        {
          "internalType": "address",
          "name": "uid",
          "type": "address"
        },
        {
          "internalType": "string",
          "name": "message",
          "type": "string"
        }
      ],
      "name": "UserAlreadyExists",
      "type": "error"
    },
    {
      "inputs": [
        {
          "internalType": "address",
          "name": "uid",
          "type": "address"
        },
        {
          "internalType": "string",
          "name": "message",
          "type": "string"
        }
      ],
      "name": "UserNotRegistered",
      "type": "error"
    },
    {
      "anonymous": false,
      "inputs": [
        {
          "indexed": false,
          "internalType": "uint256",
          "name": "requestId",
          "type": "uint256"
        },
        {
          "indexed": false,
          "internalType": "address",
          "name": "applicantUID",
          "type": "address"
        },
        {
          "indexed": false,
          "internalType": "enum Types.Role",
          "name": "requestedRole",
          "type": "uint8"
        }
      ],
      "name": "NewRoleRequestAdded",
      "type": "event"
    },
    {
      "anonymous": false,
      "inputs": [
        {
          "indexed": false,
          "internalType": "string",
          "name": "name",
          "type": "string"
        },
        {
          "indexed": false,
          "internalType": "address",
          "name": "uid",
          "type": "address"
        },
        {
          "indexed": false,
          "internalType": "string",
          "name": "serviceGeoHash",
          "type": "string"
        }
      ],
      "name": "NewUserAdded",
      "type": "event"
    },
    {
      "anonymous": false,
      "inputs": [
        {
          "indexed": true,
          "internalType": "address",
          "name": "previousOwner",
          "type": "address"
        },
        {
          "indexed": true,
          "internalType": "address",
          "name": "newOwner",
          "type": "address"
        }
      ],
      "name": "OwnershipTransferred",
      "type": "event"
    },
    {
      "inputs": [
        {
          "internalType": "uint256",
          "name": "_roleRequestId",
          "type": "uint256"
        },
        {
          "internalType": "bool",
          "name": "approve",
          "type": "bool"
        }
      ],
      "name": "approveOrRejectRoleRequest",
      "outputs": [],
      "stateMutability": "nonpayable",
      "type": "function"
    },
    {
      "inputs": [
        {
          "internalType": "enum Types.Role",
          "name": "_requestedRole",
          "type": "uint8"
        }
      ],
      "name": "createRoleRequest",
      "outputs": [],
      "stateMutability": "nonpayable",
      "type": "function"
    },
    {
      "inputs": [
        {
          "internalType": "address",
          "name": "_shipper",
          "type": "address"
        },
        {
          "internalType": "address",
          "name": "_receiverUID",
          "type": "address"
        },
        {
          "internalType": "string",
          "name": "_receiverName",
          "type": "string"
        },
        {
          "internalType": "string",
          "name": "_receiverGeoHash",
          "type": "string"
        },
        {
          "internalType": "string",
          "name": "_phoneNumberWithISO",
          "type": "string"
        }
      ],
      "name": "createSRRoleCheck",
      "outputs": [],
      "stateMutability": "nonpayable",
      "type": "function"
    },
    {
      "inputs": [
        {
          "internalType": "string",
          "name": "_name",
          "type": "string"
        },
        {
          "internalType": "string",
          "name": "_geoHash",
          "type": "string"
        },
        {
          "internalType": "string",
          "name": "_phoneNumberWithISO",
          "type": "string"
        }
      ],
      "name": "createUser",
      "outputs": [],
      "stateMutability": "nonpayable",
      "type": "function"
    },
    {
      "inputs": [
        {
          "internalType": "address",
          "name": "_addr",
          "type": "address"
        }
      ],
      "name": "deductStars",
      "outputs": [],
      "stateMutability": "nonpayable",
      "type": "function"
    },
    {
      "inputs": [],
      "name": "getAllRoleRequests",
      "outputs": [
        {
          "components": [
            {
              "internalType": "uint256",
              "name": "requestId",
              "type": "uint256"
            },
            {
              "internalType": "address",
              "name": "applicantUID",
              "type": "address"
            },
            {
              "internalType": "enum Types.Role",
              "name": "requestedRole",
              "type": "uint8"
            },
            {
              "internalType": "enum Types.RequestStatus",
              "name": "requestStatus",
              "type": "uint8"
            },
            {
              "internalType": "address",
              "name": "approverUID",
              "type": "address"
            }
          ],
          "internalType": "struct Types.RoleRequest[]",
          "name": "",
          "type": "tuple[]"
        }
      ],
      "stateMutability": "view",
      "type": "function"
    },
    {
      "inputs": [],
      "name": "getMyRoleRequests",
      "outputs": [
        {
          "components": [
            {
              "internalType": "uint256",
              "name": "requestId",
              "type": "uint256"
            },
            {
              "internalType": "address",
              "name": "applicantUID",
              "type": "address"
            },
            {
              "internalType": "enum Types.Role",
              "name": "requestedRole",
              "type": "uint8"
            },
            {
              "internalType": "enum Types.RequestStatus",
              "name": "requestStatus",
              "type": "uint8"
            },
            {
              "internalType": "address",
              "name": "approverUID",
              "type": "address"
            }
          ],
          "internalType": "struct Types.RoleRequest[]",
          "name": "",
          "type": "tuple[]"
        }
      ],
      "stateMutability": "view",
      "type": "function"
    },
    {
      "inputs": [],
      "name": "getRoleRequestsInMyRegion",
      "outputs": [
        {
          "components": [
            {
              "internalType": "uint256",
              "name": "requestId",
              "type": "uint256"
            },
            {
              "internalType": "address",
              "name": "applicantUID",
              "type": "address"
            },
            {
              "internalType": "enum Types.Role",
              "name": "requestedRole",
              "type": "uint8"
            },
            {
              "internalType": "enum Types.RequestStatus",
              "name": "requestStatus",
              "type": "uint8"
            },
            {
              "internalType": "address",
              "name": "approverUID",
              "type": "address"
            }
          ],
          "internalType": "struct Types.RoleRequest[]",
          "name": "",
          "type": "tuple[]"
        }
      ],
      "stateMutability": "view",
      "type": "function"
    },
    {
      "inputs": [
        {
          "internalType": "address",
          "name": "_uid",
          "type": "address"
        }
      ],
      "name": "getUserGeoHash",
      "outputs": [
        {
          "internalType": "string",
          "name": "",
          "type": "string"
        }
      ],
      "stateMutability": "view",
      "type": "function"
    },
    {
      "inputs": [
        {
          "internalType": "address",
          "name": "_uid",
          "type": "address"
        }
      ],
      "name": "getUserInfo",
      "outputs": [
        {
          "components": [
            {
              "internalType": "string",
              "name": "name",
              "type": "string"
            },
            {
              "internalType": "address",
              "name": "uid",
              "type": "address"
            },
            {
              "internalType": "string",
              "name": "phoneNumberWithISO",
              "type": "string"
            },
            {
              "internalType": "string",
              "name": "serviceGeoHash",
              "type": "string"
            },
            {
              "internalType": "uint256",
              "name": "ratingStarsInt",
              "type": "uint256"
            },
            {
              "internalType": "string",
              "name": "ratingStarsString",
              "type": "string"
            },
            {
              "internalType": "enum Types.Role[]",
              "name": "role",
              "type": "uint8[]"
            }
          ],
          "internalType": "struct Types.User",
          "name": "",
          "type": "tuple"
        }
      ],
      "stateMutability": "view",
      "type": "function"
    },
    {
      "inputs": [
        {
          "internalType": "address",
          "name": "_addr",
          "type": "address"
        }
      ],
      "name": "hasRoleDriver",
      "outputs": [],
      "stateMutability": "view",
      "type": "function"
    },
    {
      "inputs": [
        {
          "internalType": "address",
          "name": "_addr",
          "type": "address"
        }
      ],
      "name": "hasRoleReceiver",
      "outputs": [],
      "stateMutability": "view",
      "type": "function"
    },
    {
      "inputs": [
        {
          "internalType": "address",
          "name": "_addr",
          "type": "address"
        }
      ],
      "name": "hasRoleShipper",
      "outputs": [],
      "stateMutability": "view",
      "type": "function"
    },
    {
      "inputs": [
        {
          "internalType": "address",
          "name": "_addr",
          "type": "address"
        }
      ],
      "name": "isAdmin",
      "outputs": [
        {
          "internalType": "bool",
          "name": "",
          "type": "bool"
        }
      ],
      "stateMutability": "view",
      "type": "function"
    },
    {
      "inputs": [
        {
          "internalType": "address",
          "name": "_userAddr",
          "type": "address"
        }
      ],
      "name": "isUserRegistered",
      "outputs": [],
      "stateMutability": "view",
      "type": "function"
    },
    {
      "inputs": [],
      "name": "owner",
      "outputs": [
        {
          "internalType": "address",
          "name": "",
          "type": "address"
        }
      ],
      "stateMutability": "view",
      "type": "function"
    },
    {
      "inputs": [],
      "name": "renounceOwnership",
      "outputs": [],
      "stateMutability": "nonpayable",
      "type": "function"
    },
    {
      "inputs": [
        {
          "internalType": "address",
          "name": "_onlyDisputeContract",
          "type": "address"
        }
      ],
      "name": "setDisputeContractAddress",
      "outputs": [],
      "stateMutability": "nonpayable",
      "type": "function"
    },
    {
      "inputs": [
        {
          "internalType": "address",
          "name": "newOwner",
          "type": "address"
        }
      ],
      "name": "transferOwnership",
      "outputs": [],
      "stateMutability": "nonpayable",
      "type": "function"
    },
    {
      "inputs": [
        {
          "internalType": "string",
          "name": "_name",
          "type": "string"
        },
        {
          "internalType": "string",
          "name": "_geoHash",
          "type": "string"
        },
        {
          "internalType": "string",
          "name": "_phoneNumberWithISO",
          "type": "string"
        }
      ],
      "name": "updateUserInfo",
      "outputs": [
        {
          "components": [
            {
              "internalType": "string",
              "name": "name",
              "type": "string"
            },
            {
              "internalType": "address",
              "name": "uid",
              "type": "address"
            },
            {
              "internalType": "string",
              "name": "phoneNumberWithISO",
              "type": "string"
            },
            {
              "internalType": "string",
              "name": "serviceGeoHash",
              "type": "string"
            },
            {
              "internalType": "uint256",
              "name": "ratingStarsInt",
              "type": "uint256"
            },
            {
              "internalType": "string",
              "name": "ratingStarsString",
              "type": "string"
            },
            {
              "internalType": "enum Types.Role[]",
              "name": "role",
              "type": "uint8[]"
            }
          ],
          "internalType": "struct Types.User",
          "name": "",
          "type": "tuple"
        }
      ],
      "stateMutability": "nonpayable",
      "type": "function"
    }
  ],
  "bytecode": "0x60a0604052600380546001600160a01b03191690553480156200002157600080fd5b5060405162004cb538038062004cb5833981016040819052620000449162000397565b816001600160a01b0381166200007457604051631e4fbdf760e01b81526000600482015260240160405180910390fd5b6200007f8162000255565b506001600160a01b03811660805260408051600180825281830190925260009160208083019080368337019050509050600181600081518110620000c757620000c7620003e5565b60200260200101906004811115620000e357620000e3620003fb565b90816004811115620000f957620000f9620003fb565b9052506040805161012081018252600560e082019081526420b236b4b760d91b61010083015281526001600160a01b038516602080830182905283518085018552600d81526c0ace4c4e0e0dcdcd8d8d4d4d0d609a1b818301528385015283518082018552600080825260608501919091526032608085015284518086018652600280825261035360f41b8285015260a086019190915260c085018790529281529190529190912081518291908190620001b49082620004a2565b5060208201516001820180546001600160a01b0319166001600160a01b0390921691909117905560408201516002820190620001f19082620004a2565b5060608201516003820190620002089082620004a2565b506080820151600482015560a08201516005820190620002299082620004a2565b5060c0820151805162000247916006840191602090910190620002a5565b50905050505050506200056e565b600080546001600160a01b038381166001600160a01b0319831681178455604051919092169283917f8be0079c531659141344cd1fd0a4f28419497f9722a3daafe3b4186f6b6457e09190a35050565b82805482825590600052602060002090601f01602090048101928215620003515791602002820160005b838211156200032057835183826101000a81548160ff02191690836004811115620002fe57620002fe620003fb565b02179055509260200192600101602081600001049283019260010302620002cf565b80156200034f5782816101000a81549060ff021916905560010160208160000104928301926001030262000320565b505b506200035f92915062000363565b5090565b5b808211156200035f576000815560010162000364565b80516001600160a01b03811681146200039257600080fd5b919050565b60008060408385031215620003ab57600080fd5b620003b6836200037a565b9150620003c6602084016200037a565b90509250929050565b634e487b7160e01b600052604160045260246000fd5b634e487b7160e01b600052603260045260246000fd5b634e487b7160e01b600052602160045260246000fd5b600181811c908216806200042657607f821691505b6020821081036200044757634e487b7160e01b600052602260045260246000fd5b50919050565b601f8211156200049d576000816000526020600020601f850160051c81016020861015620004785750805b601f850160051c820191505b81811015620004995782815560010162000484565b5050505b505050565b81516001600160401b03811115620004be57620004be620003cf565b620004d681620004cf845462000411565b846200044d565b602080601f8311600181146200050e5760008415620004f55750858301515b600019600386901b1c1916600185901b17855562000499565b600085815260208120601f198616915b828110156200053f578886015182559484019460019091019084016200051e565b50858210156200055e5787850151600019600388901b60f8161c191681555b5050505050600190811b01905550565b60805161472b6200058a60003960006129be015261472b6000f3fe608060405234801561001057600080fd5b506004361061012c5760003560e01c80638da5cb5b116100ad578063cb2807bf11610071578063cb2807bf14610273578063d1ea5aa614610286578063e6d7a2891461028e578063f2fde38b146102a1578063facea43a146102b457600080fd5b80638da5cb5b1461021757806396202f1014610232578063a104c5301461023a578063ac6f39881461024d578063c88b81c21461026057600080fd5b80636386c1c7116100f45780636386c1c7146101b45780636b046ed6146101d4578063715018a6146101e957806375d68ae8146101f157806379361dd21461020457600080fd5b8063163f7522146101315780631752b6931461014657806324d7806c146101595780635151782b1461018157806359ae069b146101a1575b600080fd5b61014461013f366004613eb9565b6102c7565b005b610144610154366004613f7e565b610344565b61016c610167366004613eb9565b610703565b60405190151581526020015b60405180910390f35b61019461018f366004613eb9565b6107f4565b6040516101789190614078565b6101446101af36600461408b565b6108a3565b6101c76101c2366004613eb9565b610b58565b6040516101789190614180565b6101dc610e7a565b6040516101789190614238565b6101446110d3565b6101446101ff366004613eb9565b6110e7565b610144610212366004613eb9565b611111565b6000546040516001600160a01b039091168152602001610178565b6101dc611648565b610144610248366004613eb9565b611746565b61014461025b366004613eb9565b611856565b61014461026e366004613eb9565b611998565b6101446102813660046142de565b611adb565b6101dc611f1d565b61014461029c36600461430e565b6127a3565b6101446102af366004613eb9565b612c10565b6101c76102c236600461408b565b612c4b565b6001600160a01b0381811660009081526002602052604090206001015416610341576040805163030faf7360e21b81526001600160a01b038316600482015260248101919091526016604482015275155cd95c881a5cc81b9bdd081c9959da5cdd195c995960521b60648201526084015b60405180910390fd5b50565b836001600160a01b0316856001600160a01b0316036103c257604080516328097c4360e11b81526001600160a01b03871660048201526024810191909152602260448201527f5368697070657220616e642052656365697665722063616e27742062652073616064820152616d6560f01b608482015260a401610338565b6001600160a01b0385811660009081526002602052604090206001015416610437576040805163030faf7360e21b81526001600160a01b03871660048201526024810191909152601660448201527514da1a5c1c195c881b9bdd081c9959da5cdd195c995960521b6064820152608401610338565b6001600160a01b038481166000908152600260205260409020600101541661046757610467838383876001613049565b6001600160a01b03841660009081526002602090815260408083206006018054825181850281018501909352808352849384939291908301828280156104fc57602002820191906000526020600020906000905b82829054906101000a900460ff1660048111156104da576104da614113565b8152602060019283018181049485019490930390920291018084116104bb5790505b5050505050905060005b81518110156105525760048282815181106105235761052361432f565b6020026020010151600481111561053c5761053c614113565b0361054a5760019250610552565b600101610506565b5081610566576105668686868a6000613049565b6001600160a01b0388166000908152600260209081526040808320600601805482518185028101850190935280835291929091908301828280156105f957602002820191906000526020600020906000905b82829054906101000a900460ff1660048111156105d7576105d7614113565b8152602060019283018181049485019490930390920291018084116105b85790505b5050505050905060005b81518110156106855760028282815181106106205761062061432f565b6020026020010151600481111561063957610639614113565b148061066f575060018282815181106106545761065461432f565b6020026020010151600481111561066d5761066d614113565b145b1561067d5760019450610685565b600101610603565b50836106f857604080516350df61b360e01b81526001600160a01b038b1660048201526024810191909152602a60448201527f536869707065722070726f766964656420646f65736e27742068617665205348606482015269495050455220726f6c6560b01b608482015260a401610338565b505050505050505050565b6001600160a01b03811660009081526002602090815260408083206006018054825181850281018501909352808352849383018282801561079357602002820191906000526020600020906000905b82829054906101000a900460ff16600481111561077157610771614113565b8152602060019283018181049485019490930390920291018084116107525790505b5050505050905060005b81518110156107ea5760018282815181106107ba576107ba61432f565b602002602001015160048111156107d3576107d3614113565b036107e2575060019392505050565b60010161079d565b5060009392505050565b6001600160a01b038116600090815260026020526040902060030180546060919061081e90614345565b80601f016020809104026020016040519081016040528092919081815260200182805461084a90614345565b80156108975780601f1061086c57610100808354040283529160200191610897565b820191906000526020600020905b81548152906001019060200180831161087a57829003601f168201915b50505050509050919050565b336000908152600260205260409020600101546001600160a01b03161561090b576040805163b0609df160e01b8152336004820152602481019190915260136044820152725573657220616c72656164792065786973747360681b6064820152608401610338565b8282600082511161095a57604080516328097c4360e11b81523360048201526024810191909152601060448201526f13985b59481a5cc81c995c5d5a5c995960821b6064820152608401610338565b60008151116109b457604080516328097c4360e11b81523360048201526024810191909152601b60448201527f536572766963652047656f4861736820697320726571756972656400000000006064820152608401610338565b604080516001808252818301909252600091602080830190803683370190505090506000816000815181106109eb576109eb61432f565b60200260200101906004811115610a0457610a04614113565b90816004811115610a1757610a17614113565b9052506040805160e081018252878152336020808301829052828401889052606083018990526032608084015283518085018552600280825261035360f41b8284015260a085019190915260c08401869052600092835290529190912081518291908190610a8590826143c7565b5060208201516001820180546001600160a01b0319166001600160a01b0390921691909117905560408201516002820190610ac090826143c7565b5060608201516003820190610ad590826143c7565b506080820151600482015560a08201516005820190610af490826143c7565b5060c08201518051610b10916006840191602090910190613d5f565b509050507fb57eafcd915698eb373dd5b56f160b683eb679d94262c92ee83346bf57594fd6873388604051610b4793929190614487565b60405180910390a150505050505050565b610b60613e13565b6001600160a01b03821660009081526002602052604090819020815160e08101909252805482908290610b9290614345565b80601f0160208091040260200160405190810160405280929190818152602001828054610bbe90614345565b8015610c0b5780601f10610be057610100808354040283529160200191610c0b565b820191906000526020600020905b815481529060010190602001808311610bee57829003601f168201915b505050918352505060018201546001600160a01b03166020820152600282018054604090920191610c3b90614345565b80601f0160208091040260200160405190810160405280929190818152602001828054610c6790614345565b8015610cb45780601f10610c8957610100808354040283529160200191610cb4565b820191906000526020600020905b815481529060010190602001808311610c9757829003601f168201915b50505050508152602001600382018054610ccd90614345565b80601f0160208091040260200160405190810160405280929190818152602001828054610cf990614345565b8015610d465780601f10610d1b57610100808354040283529160200191610d46565b820191906000526020600020905b815481529060010190602001808311610d2957829003601f168201915b5050505050815260200160048201548152602001600582018054610d6990614345565b80601f0160208091040260200160405190810160405280929190818152602001828054610d9590614345565b8015610de25780601f10610db757610100808354040283529160200191610de2565b820191906000526020600020905b815481529060010190602001808311610dc557829003601f168201915b5050505050815260200160068201805480602002602001604051908101604052809291908181526020018280548015610e6a57602002820191906000526020600020906000905b82829054906101000a900460ff166004811115610e4857610e48614113565b815260206001928301818104948501949093039092029101808411610e295790505b5050505050815250509050919050565b606060008060018054905067ffffffffffffffff811115610e9d57610e9d613edb565b604051908082528060200260200182016040528015610ed657816020015b610ec3613e59565b815260200190600190039081610ebb5790505b50905060005b60015481101561102957336001600160a01b031660018281548110610f0357610f0361432f565b60009182526020909120600160039092020101546001600160a01b0316036110215760018181548110610f3857610f3861432f565b60009182526020918290206040805160a08101825260039093029091018054835260018101546001600160a01b0381169484019490945291929083019060ff600160a01b909104166004811115610f9157610f91614113565b6004811115610fa257610fa2614113565b81526020016001820160159054906101000a900460ff166002811115610fca57610fca614113565b6002811115610fdb57610fdb614113565b8152600291909101546001600160a01b031660209091015282518390859081106110075761100761432f565b6020026020010181905250828061101d906144db565b9350505b600101610edc565b5060008267ffffffffffffffff81111561104557611045613edb565b60405190808252806020026020018201604052801561107e57816020015b61106b613e59565b8152602001906001900390816110635790505b50905060005b838110156110cb5782818151811061109e5761109e61432f565b60200260200101518282815181106110b8576110b861432f565b6020908102919091010152600101611084565b509392505050565b6110db613211565b6110e5600061323e565b565b6110ef613211565b600380546001600160a01b0319166001600160a01b0392909216919091179055565b6001600160a01b038116600090815260026020908152604080832060060180548251818502810185019093528083528594938301828280156111a257602002820191906000526020600020906000905b82829054906101000a900460ff16600481111561118057611180614113565b8152602060019283018181049485019490930390920291018084116111615790505b505050505090506000805b82518110156111f95760038382815181106111ca576111ca61432f565b602002602001015160048111156111e3576111e3614113565b036111f157600191506111f9565b6001016111ad565b508061121a57826040516350df61b360e01b815260040161033891906144f4565b6003546001600160a01b0316331461128857604080516350df61b360e01b81523360048201526024810191909152602260448201527f4e6f7420617574686f72697a656420746f2063616c6c2074686973206d6574686064820152611bd960f21b608482015260a401610338565b6001600160a01b038416600090815260026020526040808220815160e081019092528054829082906112b990614345565b80601f01602080910402602001604051908101604052809291908181526020018280546112e590614345565b80156113325780601f1061130757610100808354040283529160200191611332565b820191906000526020600020905b81548152906001019060200180831161131557829003601f168201915b505050918352505060018201546001600160a01b0316602082015260028201805460409092019161136290614345565b80601f016020809104026020016040519081016040528092919081815260200182805461138e90614345565b80156113db5780601f106113b0576101008083540402835291602001916113db565b820191906000526020600020905b8154815290600101906020018083116113be57829003601f168201915b505050505081526020016003820180546113f490614345565b80601f016020809104026020016040519081016040528092919081815260200182805461142090614345565b801561146d5780601f106114425761010080835404028352916020019161146d565b820191906000526020600020905b81548152906001019060200180831161145057829003601f168201915b505050505081526020016004820154815260200160058201805461149090614345565b80601f01602080910402602001604051908101604052809291908181526020018280546114bc90614345565b80156115095780601f106114de57610100808354040283529160200191611509565b820191906000526020600020905b8154815290600101906020018083116114ec57829003601f168201915b505050505081526020016006820180548060200260200160405190810160405280929190818152602001828054801561159157602002820191906000526020600020906000905b82829054906101000a900460ff16600481111561156f5761156f614113565b8152602060019283018181049485019490930390920291018084116115505790505b5050509190925250505060808101519091506115ae600182614534565b90506001600160a01b03861660009081526002602052604081206004018290556115d9600a8361455d565b905060006115e8600a84614571565b90506115f38161328e565b6115fc8361328e565b60405160200161160d929190614585565b60408051601f198184030181529181526001600160a01b038a166000908152600260205220600501906106f890826143c7565b505050505050565b60606001805480602002602001604051908101604052809291908181526020016000905b8282101561173d5760008481526020908190206040805160a081018252600386029092018054835260018101546001600160a01b03811694840194909452919290830190600160a01b900460ff1660048111156116cb576116cb614113565b60048111156116dc576116dc614113565b81526020016001820160159054906101000a900460ff16600281111561170457611704614113565b600281111561171557611715614113565b8152600291909101546001600160a01b0316602091820152908252600192909201910161166c565b50505050905090565b6001600160a01b0381166000908152600260209081526040808320600601805482518185028101850190935280835291929091908301828280156117d957602002820191906000526020600020906000905b82829054906101000a900460ff1660048111156117b7576117b7614113565b8152602060019283018181049485019490930390920291018084116117985790505b505050505090506000805b82518110156118305760038382815181106118015761180161432f565b6020026020010151600481111561181a5761181a614113565b036118285760019150611830565b6001016117e4565b508061185157826040516350df61b360e01b815260040161033891906144f4565b505050565b6001600160a01b0381166000908152600260209081526040808320600601805482518185028101850190935280835291929091908301828280156118e957602002820191906000526020600020906000905b82829054906101000a900460ff1660048111156118c7576118c7614113565b8152602060019283018181049485019490930390920291018084116118a85790505b505050505090506000805b82518110156119405760028382815181106119115761191161432f565b6020026020010151600481111561192a5761192a614113565b036119385760019150611940565b6001016118f4565b508061185157604080516350df61b360e01b81526001600160a01b0385166004820152602481019190915260156044820152742ab9b2b91034b9903737ba10309029b434b83832b960591b6064820152608401610338565b6001600160a01b038116600090815260026020908152604080832060060180548251818502810185019093528083529192909190830182828015611a2b57602002820191906000526020600020906000905b82829054906101000a900460ff166004811115611a0957611a09614113565b8152602060019283018181049485019490930390920291018084116119ea5790505b505050505090506000805b8251811015611a82576004838281518110611a5357611a5361432f565b60200260200101516004811115611a6c57611a6c614113565b03611a7a5760019150611a82565b600101611a36565b508061185157604080516350df61b360e01b81526001600160a01b0385166004820152602481019190915260166044820152752ab9b2b91034b9903737ba1030902932b1b2b4bb32b960511b6064820152608401610338565b336000908152600260205260409020600101546001600160a01b0316611b16573360405163030faf7360e21b815260040161033891906145c1565b33600090815260026020908152604080832060060180548251818502810185019093528083529192909190830182828015611ba057602002820191906000526020600020906000905b82829054906101000a900460ff166004811115611b7e57611b7e614113565b815260206001928301818104948501949093039092029101808411611b5f5790505b505050505090506001805490508310611c0457604080516328097c4360e11b81523360048201526024810191909152601760448201527f496e76616c696420526f6c6520526571756573742049440000000000000000006064820152608401610338565b600060018481548110611c1957611c1961432f565b60009182526020918290206040805160a08101825260039093029091018054835260018101546001600160a01b0381169484019490945291929083019060ff600160a01b909104166004811115611c7257611c72614113565b6004811115611c8357611c83614113565b81526020016001820160159054906101000a900460ff166002811115611cab57611cab614113565b6002811115611cbc57611cbc614113565b8152600291909101546001600160a01b03166020909101529050611ce08282613321565b611d3557604080516350df61b360e01b81523360048201526024810191909152601960448201527f596f7520646f6e27742068617665207065726d697373696f6e000000000000006064820152608401610338565b611d3e8161353d565b8215611e3457600160608201819052336080830152805482919086908110611d6857611d6861432f565b60009182526020918290208351600390920201908155908201516001820180546001600160a01b039092166001600160a01b03198316811782556040850151926001600160a81b03191617600160a01b836004811115611dca57611dca614113565b0217905550606082015160018201805460ff60a81b1916600160a81b836002811115611df857611df8614113565b021790555060809190910151600290910180546001600160a01b0319166001600160a01b03909216919091179055611e2f81613629565b611f17565b600260608201523360808201526001805482919086908110611e5857611e5861432f565b60009182526020918290208351600390920201908155908201516001820180546001600160a01b039092166001600160a01b03198316811782556040850151926001600160a81b03191617600160a01b836004811115611eba57611eba614113565b0217905550606082015160018201805460ff60a81b1916600160a81b836002811115611ee857611ee8614113565b021790555060809190910151600290910180546001600160a01b0319166001600160a01b039092169190911790555b50505050565b33600090815260026020526040808220815160e08101909252805460609392919082908290611f4b90614345565b80601f0160208091040260200160405190810160405280929190818152602001828054611f7790614345565b8015611fc45780601f10611f9957610100808354040283529160200191611fc4565b820191906000526020600020905b815481529060010190602001808311611fa757829003601f168201915b505050918352505060018201546001600160a01b03166020820152600282018054604090920191611ff490614345565b80601f016020809104026020016040519081016040528092919081815260200182805461202090614345565b801561206d5780601f106120425761010080835404028352916020019161206d565b820191906000526020600020905b81548152906001019060200180831161205057829003601f168201915b5050505050815260200160038201805461208690614345565b80601f01602080910402602001604051908101604052809291908181526020018280546120b290614345565b80156120ff5780601f106120d4576101008083540402835291602001916120ff565b820191906000526020600020905b8154815290600101906020018083116120e257829003601f168201915b505050505081526020016004820154815260200160058201805461212290614345565b80601f016020809104026020016040519081016040528092919081815260200182805461214e90614345565b801561219b5780601f106121705761010080835404028352916020019161219b565b820191906000526020600020905b81548152906001019060200180831161217e57829003601f168201915b505050505081526020016006820180548060200260200160405190810160405280929190818152602001828054801561222357602002820191906000526020600020906000905b82829054906101000a900460ff16600481111561220157612201614113565b8152602060019283018181049485019490930390920291018084116121e25790505b505050505081525050905060008060018054905067ffffffffffffffff81111561224f5761224f613edb565b60405190808252806020026020018201604052801561228857816020015b612275613e59565b81526020019060019003908161226d5790505b50905060005b6001548110156126f857600060026000600184815481106122b1576122b161432f565b60009182526020808320600160039093020191909101546001600160a01b031683528201929092526040908101909120815160e081019092528054829082906122f990614345565b80601f016020809104026020016040519081016040528092919081815260200182805461232590614345565b80156123725780601f1061234757610100808354040283529160200191612372565b820191906000526020600020905b81548152906001019060200180831161235557829003601f168201915b505050918352505060018201546001600160a01b031660208201526002820180546040909201916123a290614345565b80601f01602080910402602001604051908101604052809291908181526020018280546123ce90614345565b801561241b5780601f106123f05761010080835404028352916020019161241b565b820191906000526020600020905b8154815290600101906020018083116123fe57829003601f168201915b5050505050815260200160038201805461243490614345565b80601f016020809104026020016040519081016040528092919081815260200182805461246090614345565b80156124ad5780601f10612482576101008083540402835291602001916124ad565b820191906000526020600020905b81548152906001019060200180831161249057829003601f168201915b50505050508152602001600482015481526020016005820180546124d090614345565b80601f01602080910402602001604051908101604052809291908181526020018280546124fc90614345565b80156125495780601f1061251e57610100808354040283529160200191612549565b820191906000526020600020905b81548152906001019060200180831161252c57829003601f168201915b50505050508152602001600682018054806020026020016040519081016040528092919081815260200182805480156125d157602002820191906000526020600020906000905b82829054906101000a900460ff1660048111156125af576125af614113565b8152602060019283018181049485019490930390920291018084116125905790505b50505050508152505090506125ee85606001518260600151613baa565b156126ef57600182815481106126065761260661432f565b60009182526020918290206040805160a08101825260039093029091018054835260018101546001600160a01b0381169484019490945291929083019060ff600160a01b90910416600481111561265f5761265f614113565b600481111561267057612670614113565b81526020016001820160159054906101000a900460ff16600281111561269857612698614113565b60028111156126a9576126a9614113565b8152600291909101546001600160a01b031660209091015283518490869081106126d5576126d561432f565b602002602001018190525083806126eb906144db565b9450505b5060010161228e565b5060008267ffffffffffffffff81111561271457612714613edb565b60405190808252806020026020018201604052801561274d57816020015b61273a613e59565b8152602001906001900390816127325790505b50905060005b8381101561279a5782818151811061276d5761276d61432f565b60200260200101518282815181106127875761278761432f565b6020908102919091010152600101612753565b50949350505050565b336000908152600260205260409020600101546001600160a01b03166127de573360405163030faf7360e21b815260040161033891906145c1565b336000908152600260209081526040808320600601805482518185028101850190935280835285949383018282801561286657602002820191906000526020600020906000905b82829054906101000a900460ff16600481111561284457612844614113565b8152602060019283018181049485019490930390920291018084116128255790505b5050505050905060005b81518110156129255782600481111561288b5761288b614113565b82828151811061289d5761289d61432f565b602002602001015160048111156128b6576128b6614113565b0361291d57604080516328097c4360e11b81523360048201526024810191909152602860448201527f52657175657374656420726f6c6520616c726561647920616c6c6f6361746564606482015267103a37903ab9b2b960c11b608482015260a401610338565b600101612870565b50600082600481111561293a5761293a614113565b0361299057604080516328097c4360e11b81523360048201526024810191909152601860448201527f43616e6e6f742072657175657374204e6f6e6520726f6c6500000000000000006064820152608401610338565b60038260048111156129a4576129a4614113565b03612a86576040516367514d8b60e11b81523360048201527f00000000000000000000000000000000000000000000000000000000000000006001600160a01b03169063cea29b1690602401602060405180830381865afa158015612a0d573d6000803e3d6000fd5b505050506040513d601f19601f82011682018060405250810190612a3191906145fe565b612a865760408051632829ed7b60e11b81523360048201526024810191909152601d60448201527f44726976696e67204c6963656e7365204e4654206e6f7420666f756e640000006064820152608401610338565b6001546040805160a0810182528281523360208201526000918101866004811115612ab357612ab3614113565b815260200160008152600060209182018190526001805480820182559152825160039091027fb10e2d527612073b26eecdfd717e6a320cf44b4afac2b0732d9fcbe2b7fa0cf68101918255918301517fb10e2d527612073b26eecdfd717e6a320cf44b4afac2b0732d9fcbe2b7fa0cf790920180546001600160a01b03939093166001600160a01b03198416811782556040850151949550859492936001600160a81b03191617600160a01b836004811115612b7157612b71614113565b0217905550606082015160018201805460ff60a81b1916600160a81b836002811115612b9f57612b9f614113565b021790555060809190910151600290910180546001600160a01b0319166001600160a01b039092169190911790556040517f7910063c799288427de0925161343d20c08a45e8d595958496a5b6423daacce090612c019084903390899061461b565b60405180910390a15050505050565b612c18613211565b6001600160a01b038116612c4257604051631e4fbdf760e01b815260006004820152602401610338565b6103418161323e565b612c53613e13565b612c5c336102c7565b612c6584613c3f565b612c6e82613c3f565b612c7783613c63565b33600090815260026020526040808220815160e08101909252805482908290612c9f90614345565b80601f0160208091040260200160405190810160405280929190818152602001828054612ccb90614345565b8015612d185780601f10612ced57610100808354040283529160200191612d18565b820191906000526020600020905b815481529060010190602001808311612cfb57829003601f168201915b505050918352505060018201546001600160a01b03166020820152600282018054604090920191612d4890614345565b80601f0160208091040260200160405190810160405280929190818152602001828054612d7490614345565b8015612dc15780601f10612d9657610100808354040283529160200191612dc1565b820191906000526020600020905b815481529060010190602001808311612da457829003601f168201915b50505050508152602001600382018054612dda90614345565b80601f0160208091040260200160405190810160405280929190818152602001828054612e0690614345565b8015612e535780601f10612e2857610100808354040283529160200191612e53565b820191906000526020600020905b815481529060010190602001808311612e3657829003601f168201915b5050505050815260200160048201548152602001600582018054612e7690614345565b80601f0160208091040260200160405190810160405280929190818152602001828054612ea290614345565b8015612eef5780601f10612ec457610100808354040283529160200191612eef565b820191906000526020600020905b815481529060010190602001808311612ed257829003601f168201915b5050505050815260200160068201805480602002602001604051908101604052809291908181526020018280548015612f7757602002820191906000526020600020906000905b82829054906101000a900460ff166004811115612f5557612f55614113565b815260206001928301818104948501949093039092029101808411612f365790505b50505091909252505050858152606081018590526040808201859052336000908152600260205220815191925082918190612fb290826143c7565b5060208201516001820180546001600160a01b0319166001600160a01b0390921691909117905560408201516002820190612fed90826143c7565b506060820151600382019061300290826143c7565b506080820151600482015560a0820151600582019061302190826143c7565b5060c0820151805161303d916006840191602090910190613d5f565b50919695505050505050565b80156131bf57604080516001808252818301909252600091602080830190803683370190505090506004816000815181106130865761308661432f565b6020026020010190600481111561309f5761309f614113565b908160048111156130b2576130b2614113565b9052506040805160e0810182528781526001600160a01b0385166020808301829052828401889052606083018990526032608084015283518085018552600280825261035360f41b8284015260a085019190915260c0840186905260009283529052919091208151829190819061312990826143c7565b5060208201516001820180546001600160a01b0319166001600160a01b039092169190911790556040820151600282019061316490826143c7565b506060820151600382019061317990826143c7565b506080820151600482015560a0820151600582019061319890826143c7565b5060c082015180516131b4916006840191602090910190613d5f565b50905050505061320a565b61320a6040518060a0016040528060018054905060016131df9190614646565b81526001600160a01b0385166020820152604001600481526020016001815233602090910152613629565b5050505050565b6000546001600160a01b031633146110e55760405163118cdaa760e01b8152336004820152602401610338565b600080546001600160a01b038381166001600160a01b0319831681178455604051919092169283917f8be0079c531659141344cd1fd0a4f28419497f9722a3daafe3b4186f6b6457e09190a35050565b6060600061329b83613c87565b600101905060008167ffffffffffffffff8111156132bb576132bb613edb565b6040519080825280601f01601f1916602001820160405280156132e5576020820181803683370190505b5090508181016020015b600019016f181899199a1a9b1b9c1cb0b131b232b360811b600a86061a8153600a85049450846132ef57509392505050565b60208101516000906001600160a01b0316330361339457604080516350df61b360e01b81523360048201526024810191909152602260448201527f53656c6620617070726f76652f72656a656374206973206e6f7420616c6c6f77606482015261195960f21b608482015260a401610338565b604082015160005b84518110156135305760018582815181106133b9576133b961432f565b602002602001015160048111156133d2576133d2614113565b036133e257600192505050613537565b60028260048111156133f6576133f6614113565b14801561342d575060028582815181106134125761341261432f565b6020026020010151600481111561342b5761342b614113565b145b1561343d57600192505050613537565b600382600481111561345157613451614113565b1480156134bc5750600385828151811061346d5761346d61432f565b6020026020010151600481111561348657613486614113565b14806134bc575060028582815181106134a1576134a161432f565b602002602001015160048111156134ba576134ba614113565b145b156134cc57600192505050613537565b60048260048111156134e0576134e0614113565b148015613518575060008582815181106134fc576134fc61432f565b6020026020010151600481111561351557613515614113565b14155b1561352857600192505050613537565b60010161339c565b5060009150505b92915050565b60018160600151600281111561355557613555614113565b036135b35780516040516376f7164160e11b815233600482015260606024820152601d60648201527f526f6c65207265717565737420616c726561647920617070726f7665640000006084820152604481019190915260a401610338565b6002816060015160028111156135cb576135cb614113565b036103415780516040516376f7164160e11b815233600482015260606024820152601d60648201527f526f6c65207265717565737420616c72656164792072656a65637465640000006084820152604481019190915260a401610338565b6020808201516001600160a01b0316600090815260029091526040808220815160e0810190925280548290829061365f90614345565b80601f016020809104026020016040519081016040528092919081815260200182805461368b90614345565b80156136d85780601f106136ad576101008083540402835291602001916136d8565b820191906000526020600020905b8154815290600101906020018083116136bb57829003601f168201915b505050918352505060018201546001600160a01b0316602082015260028201805460409092019161370890614345565b80601f016020809104026020016040519081016040528092919081815260200182805461373490614345565b80156137815780601f1061375657610100808354040283529160200191613781565b820191906000526020600020905b81548152906001019060200180831161376457829003601f168201915b5050505050815260200160038201805461379a90614345565b80601f01602080910402602001604051908101604052809291908181526020018280546137c690614345565b80156138135780601f106137e857610100808354040283529160200191613813565b820191906000526020600020905b8154815290600101906020018083116137f657829003601f168201915b505050505081526020016004820154815260200160058201805461383690614345565b80601f016020809104026020016040519081016040528092919081815260200182805461386290614345565b80156138af5780601f10613884576101008083540402835291602001916138af565b820191906000526020600020905b81548152906001019060200180831161389257829003601f168201915b505050505081526020016006820180548060200260200160405190810160405280929190818152602001828054801561393757602002820191906000526020600020906000905b82829054906101000a900460ff16600481111561391557613915614113565b8152602060019283018181049485019490930390920291018084116138f65790505b505050505081525050905060008160c00151905080516001148015613987575060008160008151811061396c5761396c61432f565b6020026020010151600481111561398557613985614113565b145b15613abe57604080516001808252818301909252600091602080830190803683370190505090508360400151816000815181106139c6576139c661432f565b602002602001019060048111156139df576139df614113565b908160048111156139f2576139f2614113565b90525060c083018190526020808501516001600160a01b0316600090815260029091526040902083518491908190613a2a90826143c7565b5060208201516001820180546001600160a01b0319166001600160a01b0390921691909117905560408201516002820190613a6590826143c7565b5060608201516003820190613a7a90826143c7565b506080820151600482015560a08201516005820190613a9990826143c7565b5060c08201518051613ab5916006840191602090910190613d5f565b50505050505050565b60008260c00151516001613ad29190614646565b67ffffffffffffffff811115613aea57613aea613edb565b604051908082528060200260200182016040528015613b13578160200160208202803683370190505b50905060005b8360c0015151811015613b8d578360c001518181518110613b3c57613b3c61432f565b6020026020010151828281518110613b5657613b5661432f565b60200260200101906004811115613b6f57613b6f614113565b90816004811115613b8257613b82614113565b905250600101613b19565b508360400151818460c0015151815181106139c6576139c661432f565b80518251600091849184911015613bc657600092505050613537565b60005b8251811015613c3357818181518110613be457613be461432f565b602001015160f81c60f81b6001600160f81b031916838281518110613c0b57613c0b61432f565b01602001516001600160f81b03191614613c2b5760009350505050613537565b600101613bc9565b50600195945050505050565b80516000036103415780604051634244bb2f60e01b81526004016103389190614659565b600381511161034157806040516322d9de9760e21b815260040161033891906146a3565b60008072184f03e93ff9f4daa797ed6e38ed64bf6a1f0160401b8310613cc65772184f03e93ff9f4daa797ed6e38ed64bf6a1f0160401b830492506040015b6d04ee2d6d415b85acef81000000008310613cf2576d04ee2d6d415b85acef8100000000830492506020015b662386f26fc100008310613d1057662386f26fc10000830492506010015b6305f5e1008310613d28576305f5e100830492506008015b6127108310613d3c57612710830492506004015b60648310613d4e576064830492506002015b600a83106135375760010192915050565b82805482825590600052602060002090601f01602090048101928215613e035791602002820160005b83821115613dd457835183826101000a81548160ff02191690836004811115613db357613db3614113565b02179055509260200192600101602081600001049283019260010302613d88565b8015613e015782816101000a81549060ff0219169055600101602081600001049283019260010302613dd4565b505b50613e0f929150613e88565b5090565b6040518060e001604052806060815260200160006001600160a01b0316815260200160608152602001606081526020016000815260200160608152602001606081525090565b6040805160a0810182526000808252602082018190529091820190815260200160008152600060209091015290565b5b80821115613e0f5760008155600101613e89565b80356001600160a01b0381168114613eb457600080fd5b919050565b600060208284031215613ecb57600080fd5b613ed482613e9d565b9392505050565b634e487b7160e01b600052604160045260246000fd5b600082601f830112613f0257600080fd5b813567ffffffffffffffff80821115613f1d57613f1d613edb565b604051601f8301601f19908116603f01168101908282118183101715613f4557613f45613edb565b81604052838152866020858801011115613f5e57600080fd5b836020870160208301376000602085830101528094505050505092915050565b600080600080600060a08688031215613f9657600080fd5b613f9f86613e9d565b9450613fad60208701613e9d565b9350604086013567ffffffffffffffff80821115613fca57600080fd5b613fd689838a01613ef1565b94506060880135915080821115613fec57600080fd5b613ff889838a01613ef1565b9350608088013591508082111561400e57600080fd5b5061401b88828901613ef1565b9150509295509295909350565b60005b8381101561404357818101518382015260200161402b565b50506000910152565b60008151808452614064816020860160208601614028565b601f01601f19169290920160200192915050565b602081526000613ed4602083018461404c565b6000806000606084860312156140a057600080fd5b833567ffffffffffffffff808211156140b857600080fd5b6140c487838801613ef1565b945060208601359150808211156140da57600080fd5b6140e687838801613ef1565b935060408601359150808211156140fc57600080fd5b5061410986828701613ef1565b9150509250925092565b634e487b7160e01b600052602160045260246000fd5b6005811061413957614139614113565b9052565b60008151808452602080850194506020840160005b8381101561417557614165878351614129565b9582019590820190600101614152565b509495945050505050565b602081526000825160e0602084015261419d61010084018261404c565b905060018060a01b0360208501511660408401526040840151601f19808584030160608601526141cd838361404c565b925060608601519150808584030160808601526141ea838361404c565b9250608086015160a086015260a08601519150808584030160c0860152614211838361404c565b925060c08601519150808584030160e08601525061422f828261413d565b95945050505050565b602080825282518282018190526000919060409081850190868401855b828110156142c357815180518552868101516001600160a01b0390811688870152868201519061428788880183614129565b60609150818301516003811061429f5761429f614113565b91870191909152608091820151169085015260a09093019290850190600101614255565b5091979650505050505050565b801515811461034157600080fd5b600080604083850312156142f157600080fd5b823591506020830135614303816142d0565b809150509250929050565b60006020828403121561432057600080fd5b813560058110613ed457600080fd5b634e487b7160e01b600052603260045260246000fd5b600181811c9082168061435957607f821691505b60208210810361437957634e487b7160e01b600052602260045260246000fd5b50919050565b601f821115611851576000816000526020600020601f850160051c810160208610156143a85750805b601f850160051c820191505b81811015611640578281556001016143b4565b815167ffffffffffffffff8111156143e1576143e1613edb565b6143f5816143ef8454614345565b8461437f565b602080601f83116001811461442a57600084156144125750858301515b600019600386901b1c1916600185901b178555611640565b600085815260208120601f198616915b828110156144595788860151825594840194600190910190840161443a565b50858210156144775787850151600019600388901b60f8161c191681555b5050505050600190811b01905550565b60608152600061449a606083018661404c565b6001600160a01b038516602084015282810360408401526144bb818561404c565b9695505050505050565b634e487b7160e01b600052601160045260246000fd5b6000600182016144ed576144ed6144c5565b5060010190565b6001600160a01b03919091168152604060208201819052601490820152732ab9b2b91034b9903737ba103090223934bb32b960611b606082015260800190565b81810381811115613537576135376144c5565b634e487b7160e01b600052601260045260246000fd5b60008261456c5761456c614547565b500690565b60008261458057614580614547565b500490565b60008351614597818460208801614028565b601760f91b90830190815283516145b5816001840160208801614028565b01600101949350505050565b6001600160a01b03919091168152604060208201819052601190820152702ab73932b3b4b9ba32b932b2102ab9b2b960791b606082015260800190565b60006020828403121561461057600080fd5b8151613ed4816142d0565b8381526001600160a01b03831660208201526060810161463e6040830184614129565b949350505050565b80820180821115613537576135376144c5565b60408152600061466c604083018461404c565b8281036020840152601581527456616c75652063616e6e6f7420626520656d70747960581b60208201526040810191505092915050565b6040815260006146b6604083018461404c565b8281036020840152601881527f496e76616c69642047656f486173682070726f766964656400000000000000006020820152604081019150509291505056fea26469706673582212202e2b0e5d42e88eda72c4c682c83bfb762e0eedb2ba52784d8cee242e4b8fab5264736f6c63430008180033",
  "linkReferences": {},
  "deployedLinkReferences": {}
}